:100000000C9463000C948B000C948B000C948B006C
:100010000C948B000C948B000C948B000C948B0034
:100020000C948B000C948B000C948B000C948B0024
:100030000C948B000C948B000C948B000C948B0014
:100040000C94EA020C948B000C94EB040C9439058C
:100050000C948B000C948B000C948B000C948B00F4
:100060000C948B000C948B000000000024002700EF
:100070002A0000000000250028002B0000000000DE
:1000800023002600290004040404040404040202DA
:100090000202020203030303030301020408102007
:1000A0004080010204081020010204081020000012
:1000B0000007000201000003040600000000000029
:1000C0000000D701A50611241FBECFEFD8E0DEBF88
:1000D000CDBF11E0A0E0B1E0E0E0F7E102C00590A3
:1000E0000D92AE3DB107D9F712E0AEEDB1E001C01F
:1000F0001D92AB3AB107E1F710E0C6ECD0E004C0C6
:100100002297FE010E947A0BC23CD107C9F70E94D8
:10011000DB020C947E0B0C9400000895FC0182819C
:100120000895FC01628380810E9443040895FC01CC
:10013000862F6083718361E00E94040408958F928A
:100140009F92AF92BF92CF92DF92EF92FF920F9366
:100150001F93CF93DF935C01D62EE42EFC01108613
:100160001186128613861486862F61E00E9404048D
:100170008D2D60E00E944304FF2400E010E0C801E0
:10018000B7010E9466038D2D61E00E94430488E25E
:1001900090E00E94BF038D2D60E00E940404C0E93E
:1001A000D1E002C0219741F18D2D0E949704892B47
:1001B000C9F3C0E9D1E002C02197F1F08D2D0E9472
:1001C00097040197C9F303C0219741F415C040E893
:1001D000C42E882438E2932EC0E9D1E08D2D0E94F0
:1001E0009704892B89F30E9440037B018C01C0E9AD
:1001F000D1E005C0219719F42EEF3FEF2CC08D2DD3
:100200000E9497040197B1F30E9440036E197F0981
:10021000800B910B693271058105910530F0F50174
:10022000E80DF11D80858C2980878C2D90E09595B7
:100230008795C82E882319F4839480E8C82E9A9451
:1002400059F68D2D61E00E9404048D2D61E00E941D
:10025000430420E030E0C901DF91CF911F910F915D
:10026000FF90EF90DF90CF90BF90AF909F908F90D6
:100270000895EF92FF920F931F93CF93DF93EC01BA
:1002800042E10E949F007C01009769F080E090ECC1
:10029000A9E7B4EC88839983AA83BB838C839D836D
:1002A000AE83BF831DC00885602F70E080E090E0C2
:1002B0000E941A0A688379838A839B831A85612F37
:1002C00070E080E090E00E941A0A6C837D838E8348
:1002D0009F83100F8C85811719F0EE24EA94FE2C71
:1002E000C701DF91CF911F910F91FF90EF9008957B
:1002F0000F931F93CF93DF93EC0141E00E949F0087
:100300008C01009769F080E090ECA9E7B4EC888359
:100310009983AA83BB838C839D83AE83BF8341C0B3
:10032000888569850E941109A0E0B0E0BC01CD017B
:100330000E941A0A2DEC3CEC4CEC5DE30E94D00AC2
:10034000688379838A839B838A858F776B850E94F4
:100350001109A0E0B0E0BC01CD010E941A0A2DEC09
:100360003CEC4CEC5DE30E94D00A9B01AC016C8339
:100370007D838E839F838A8587FF07C0DA01C90149
:10038000B0588C839D83AE83BF8389859885890F00
:100390009A85890F9B85890F9C85981711F00FEF1F
:1003A0001FEFC801DF91CF911F910F91089582EE49
:1003B00091E00E948D0085EE91E00E948D0088EE14
:1003C00091E00E948D000895EF92FF920F931F938A
:1003D0000E9432037B018C018091DE019091DF014C
:1003E000A091E001B091E101A8019701281B390B10
:1003F0004A0B5B0B8091C6019091C701A091C80187
:10040000B091C90182179307A407B50708F09FC0F0
:10041000E092DE01F092DF010093E0011093E10130
:1004200082EE91E00E948E0011E0682F612782EE3B
:1004300091E00E94910085EE91E00E948E001827C5
:1004400085EE91E0612F0E94910089E892E060E0E2
:1004500071E00E94FE088BEE91E069E00E94390194
:100460002FEF8F3F920709F45CC0009729F08E5F51
:100470009F4F09F060C05AC089E892E069E171E0DD
:100480000E94FE0889E892E065E271E00E9414088B
:100490004091EB015091EC016091ED017091EE0102
:1004A00089E892E022E030E00E94FB086091EB01D5
:1004B0007091EC018091ED019091EE010E94E909AB
:1004C0007093CD016093CC0189E892E064E371E020
:1004D0000E94FE0889E892E065E371E00E9414083A
:1004E0004091EF015091F0016091F1017091F201A2
:1004F00089E892E022E030E00E94FB086091EF0181
:100500007091F0018091F1019091F2010E94E9094E
:100510007093CB016093CA0189E892E064E371E0D3
:100520000EC089E892E067E471E009C089E892E0D2
:1005300066E571E004C089E892E065E671E00E943A
:10054000FE0889E892E064E371E00E94FE081F91D2
:100550000F91FF90EF9008950F931F9309E812E019
:10056000C80140E855E260E070E00E947405C801EF
:1005700063E771E00E94FE0882EE91E06DE070E0BA
:100580000E94970085EE91E06CE070E00E94970079
:1005900088EE91E06BE070E00E9497008BEE91E0B6
:1005A00069E00E947801C80160EA71E00E94FE08DB
:1005B0001F910F910895CF93DF930E94C9030E946A
:1005C000AC02C6E2D5E00E94E4012097E1F30E946C
:1005D0002605F9CF1F920F920FB60F9211242F9379
:1005E0003F938F939F93AF93BF938091FC01909122
:1005F000FD01A091FE01B091FF0130910002019632
:10060000A11DB11D232F2D5F2D3720F02D570196F1
:10061000A11DB11D209300028093FC019093FD0168
:10062000A093FE01B093FF018091F8019091F90130
:10063000A091FA01B091FB010196A11DB11D80931B
:10064000F8019093F901A093FA01B093FB01BF91D7
:10065000AF919F918F913F912F910F900FBE0F906F
:100660001F9018958FB7F8942091FC013091FD01EF
:100670004091FE015091FF018FBFB901CA01089559
:100680009FB7F8942091F8013091F9014091FA0157
:100690005091FB0186B5A89B06C08F3F21F02F5FCC
:1006A0003F4F4F4F5F4F9FBF542F432F322F222773
:1006B000280F311D411D511D82E0220F331F441FA1
:1006C000551F8A95D1F7B901CA0108959B01AC0164
:1006D0007FB7F8948091F8019091F901A091FA0107
:1006E000B091FB0166B5A89B05C06F3F19F001965C
:1006F000A11DB11D7FBFBA2FA92F982F8827860F64
:10070000911DA11DB11D62E0880F991FAA1FBB1F7B
:100710006A95D1F7BC012DC0FFB7F8948091F8011C
:100720009091F901A091FA01B091FB01E6B5A89B67
:1007300005C0EF3F19F00196A11DB11DFFBFBA2FF3
:10074000A92F982F88278E0F911DA11DB11DE2E0C2
:10075000880F991FAA1FBB1FEA95D1F7861B970B1D
:10076000885E9340C8F2215030404040504068516C
:100770007C4F211531054105510571F6089501970A
:1007800039F0880F991F880F991F02970197F1F789
:100790000895789484B5826084BD84B5816084BDF9
:1007A00085B5826085BD85B5816085BDEEE6F0E0EA
:1007B000808181608083E1E8F0E010828081826046
:1007C0008083808181608083E0E8F0E080818160C7
:1007D0008083E1EBF0E0808184608083E0EBF0E0F7
:1007E000808181608083EAE7F0E08081846080839B
:1007F0008081826080838081816080838081806845
:1008000080831092C1000895CF93DF93482F50E06A
:10081000CA0186569F4FFC0134914A575F4FFA0137
:100820008491882369F190E0880F991FFC01E859B1
:10083000FF4FA591B491FC01EE58FF4FC591D491A3
:10084000662351F42FB7F8948C91932F90958923B8
:100850008C93888189230BC0623061F42FB7F894A0
:100860008C91932F909589238C938881832B8883F7
:100870002FBF06C09FB7F8948C91832B8C939FBF9A
:10088000DF91CF910895482F50E0CA0182559F4FC4
:10089000FC012491CA0186569F4FFC0194914A574E
:1008A0005F4FFA013491332309F440C0222351F100
:1008B000233071F0243028F42130A1F0223011F5DA
:1008C00014C02630B1F02730C1F02430D9F404C070
:1008D000809180008F7703C0809180008F7D80930E
:1008E000800010C084B58F7702C084B58F7D84BD31
:1008F00009C08091B0008F7703C08091B0008F7DD8
:100900008093B000E32FF0E0EE0FFF1FEE58FF4F93
:10091000A591B4912FB7F894662321F48C9190950A
:10092000892302C08C91892B8C932FBF0895682F47
:1009300070E0CB0182559F4FFC012491CB0186567C
:100940009F4FFC0144916A577F4FFB01949199237B
:1009500019F420E030E03CC0222351F1233071F043
:10096000243028F42130A1F0223011F514C02630B3
:10097000B1F02730C1F02430D9F404C08091800058
:100980008F7703C0809180008F7D8093800010C09E
:1009900084B58F7702C084B58F7D84BD09C08091F6
:1009A000B0008F7703C08091B0008F7D8093B0003E
:1009B000892F90E0880F991F84589F4FFC01A591C3
:1009C000B4918C9120E030E0842311F021E030E0FC
:1009D000C901089508951F920F920FB60F92112426
:1009E0002F933F934F938F939F93EF93FF93809118
:1009F000C00082FD1DC04091C6002091410230918F
:100A000042022F5F3F4F2F733070809143029091CD
:100A100044022817390771F0E0914102F091420237
:100A2000EF5FFD4F4083309342022093410202C0AA
:100A30008091C600FF91EF919F918F914F913F91CF
:100A40002F910F900FBE0F901F901895E091950277
:100A5000F0919602E05CFF4F81919191208131816C
:100A6000821B930B8F739070892B11F00E94EA0404
:100A700008951F920F920FB60F9211242F933F9358
:100A80008F939F93EF93FF9320918502309186027D
:100A900080918702909188022817390731F480915C
:100AA000C1008F7D8093C10014C0E0918702F09156
:100AB0008802EB5BFD4F2081809187029091880234
:100AC00001968F7390709093880280938702209391
:100AD000C600FF91EF919F918F913F912F910F90C1
:100AE0000FBE0F901F901895AF92BF92DF92EF92BA
:100AF000FF920F931F93CF93DF93EC017A018B0149
:100B0000DD24403081EE580780E0680780E07807F8
:100B100011F0DD24D39491E0A92EB12CEC89FD894C
:100B2000DD2069F0C50108A002C0880F991F0A9452
:100B3000E2F7808360E079E08DE390E005C0108209
:100B400060E874E88EE190E0A80197010E94560BDE
:100B50002150304040405040569547953795279555
:100B600080E12030380720F0DD2011F0DD24D6CFE1
:100B7000E889F9893083EA89FB89208319A2EE8903
:100B8000FF89408121E030E0C9010C8C02C0880F50
:100B9000991F0A94E2F7482B4083EE89FF89408130
:100BA000C9010D8C02C0880F991F0A94E2F7482BE7
:100BB0004083EE89FF894081C9010E8C02C0880FF5
:100BC000991F0A94E2F7482B4083EE89FF898081C0
:100BD0000F8C02C0220F331F0A94E2F720952823BE
:100BE0002083DF91CF911F910F91FF90EF90DF90C5
:100BF000BF90AF900895DC011C96ED91FC911D977C
:100C0000E05CFF4F2191319180819181281B390B4C
:100C10002F733070C9010895DC011C96ED91FC9191
:100C20001D97E05CFF4F20813181E054F040DF01EF
:100C3000AE5BBF4F8D919C9111972817390719F41E
:100C40002FEF3FEF07C08D919C91E80FF91F808136
:100C5000282F30E0C9010895DC011C96ED91FC912C
:100C60001D97E05CFF4F20813181E054F040DF01AF
:100C7000AE5BBF4F8D919C9111972817390719F4DE
:100C80002FEF3FEF10C08D919C911197E80FF91F46
:100C900020818D919C91119701968F739070119680
:100CA0009C938E9330E0C9010895DC0191968C915C
:100CB0009197882339F05496ED91FC915597808156
:100CC00086FFF9CF91961C920895CF93DF93EC01A4
:100CD000EE85FF85E05CFF4F20813181E054F040DC
:100CE0002F5F3F4F2F733070DF01AE5BBF4F8D9191
:100CF0009C91119728173907D1F3E05CFF4F808151
:100D00009181E054F040E80FF91F6083EE85FF8584
:100D1000E05CFF4F31832083EE89FF89208181E0F1
:100D200090E00F8C02C0880F991F0A94E2F7282BDD
:100D3000208381E089A3EC89FD89808180648083A0
:100D400081E090E0DF91CF91089510928C02109293
:100D50008B0288EE93E0A0E0B0E080938D02909348
:100D60008E02A0938F02B093900282ED91E0909357
:100D70008A028093890281E092E0909396028093A8
:100D8000950285E492E0909398028093970285EC17
:100D900090E090939A028093990284EC90E0909373
:100DA0009C0280939B0280EC90E090939E02809343
:100DB0009D0281EC90E09093A00280939F0282ECD0
:100DC00090E09093A2028093A10286EC90E0909331
:100DD000A4028093A30284E08093A50283E0809321
:100DE000A60287E08093A70285E08093A80281E0B5
:100DF0008093A9020895CF92DF92EF92FF920F9312
:100E00001F93CF93DF937C016B018A01C0E0D0E098
:100E10000FC0D6016D916D01D701ED91FC9101904C
:100E2000F081E02DC7010995C80FD91F015010406E
:100E30000115110571F7CE01DF91CF911F910F912F
:100E4000FF90EF90DF90CF900895EF92FF920F9375
:100E50001F938C01DC01ED91FC910190F081E02D5C
:100E60006DE009957C01D801ED91FC910190F08134
:100E7000E02DC8016AE009959C012E0D3F1DC901B6
:100E80001F910F91FF90EF900895CF93DF93EC01A6
:100E90006115710519F420E030E00FC0DB010D9001
:100EA0000020E9F71197A61BB70BE881F9810280B2
:100EB000F381E02DAD0109959C01C901DF91CF912E
:100EC00008954F925F927F928F929F92AF92BF92BE
:100ED000CF92DF92EF92FF920F931F93DF93CF9306
:100EE000CDB7DEB7A1970FB6F894DEBF0FBECDBF6A
:100EF0002C01742ECB01223008F42AE019A231E231
:100F0000C32ED12CCC0EDD1E822E9924AA24BB2404
:100F1000672D752FA50194010E94560B79018A0156
:100F2000C801B701A50194010E94370B472D461B4C
:100F30000894C108D1084A3014F4405D01C0495CEE
:100F4000F6014083E114F1040105110521F07E2C26
:100F50005F2DC801DDCFC201B6010E944507A196F1
:100F60000FB6F894DEBF0FBECDBFCF91DF911F91BA
:100F70000F91FF90EF90DF90CF90BF90AF909F9038
:100F80008F907F905F904F900895DC01211531057F
:100F900041F4ED91FC910190F081E02D642F0995D1
:100FA00008950E9461070895CF92DF92EF92FF9219
:100FB0000F931F93CF93DF93EC016A017B012115FF
:100FC000310541F4E881F9810190F081E02D642F31
:100FD00009951FC02A303105D1F477FF17C0E88189
:100FE000F9810190F081E02D6DE209958C01442793
:100FF0005527BA014C195D096E097F09CE012AE017
:101000000E9461079801280F391F04C02AE00E943E
:1010100061079C01C901DF91CF911F910F91FF9052
:10102000EF90DF90CF9008950E94450708957F923A
:101030008F929F92AF92BF92CF92DF92EF92FF92E8
:101040000F931F93CF93DF934C017A018B01722E84
:10105000CB01BA01A80197010E94330B882321F02C
:10106000C40168EB71E021C0C0E0D0E05701680125
:10107000E894D7F8C601B5012FEF3FEF4FE75FE7E0
:101080000E94330B882351F4C601B5012FEF3FEFC7
:101090004FE75FE70E947D09181614F0C1E0D0E029
:1010A000219739F0C4016CEB71E00E944507EC0117
:1010B00093C0C801B7012FEF3FEF4FE75FE40E94F5
:1010C000CC0A181654F0C801B7012FEF3FEF4FE7D5
:1010D0005FEC0E947D09882324F4C40160EC71E078
:1010E000E4CFC801B70120E030E040E050E00E94CA
:1010F0007D0987FD03C0C0E0D0E00EC0D401ED91B2
:10110000FC910190F081E02DC4016DE20995EC01A4
:1011100017FB109517F9109520E030E040E05FE3F1
:10112000DD240BC0CA01B90120E030E040E251E407
:101130000E9481099B01AC01D394D71498F3C80194
:10114000B7010E9419095B016C010E94EE097B0145
:101150008C01C401B801A7012AE030E00E94C50754
:10116000C80FD91F772039F0C40164EC71E00E94E8
:101170004507C80FD91FC801B7010E941A0A9B0171
:10118000AC01C601B5010E94180924C020E030E07E
:1011900040E251E40E94D00A7B018C010E94E909DF
:1011A0005B016C01CC24B7FCC094DC2CC401B601FB
:1011B000A5012AE030E00E94D407C80FD91FC6015C
:1011C000B5010E941C0A9B01AC01C801B7010E9435
:1011D00018097A947720D1F6CE01DF91CF911F9133
:1011E0000F91FF90EF90DF90CF90BF90AF909F90C6
:1011F0008F907F9008950E9417080895EF92FF92B4
:101200000F931F937C010E9445078C01C7010E9428
:101210002507080F191FC8011F910F91FF90EF902C
:10122000089570E0382F20E0622B732BCB010895D6
:101230005058BB27AA270ED075C166D130F06BD1AC
:1012400020F031F49F3F11F41EF45BC10EF4E095E1
:10125000E7FB51C1E92F77D180F3BA176207730713
:101260008407950718F071F49EF58FC10EF4E09590
:101270000B2EBA2FA02D0B01B90190010C01CA0150
:10128000A0011124FF27591B99F0593F50F4503EFB
:1012900068F11A16F040A22F232F342F4427585FED
:1012A000F3CF469537952795A795F0405395C9F705
:1012B0007EF41F16BA0B620B730B840BBAF09150BD
:1012C000A1F0FF0FBB1F661F771F881FC2F70EC05C
:1012D000BA0F621F731F841F48F48795779567952F
:1012E000B795F7959E3F08F0B3CF9395880F08F018
:1012F0009927EE0F979587950895D9D008F481E046
:1013000008950CD00FC107D140F0FED030F021F489
:101310005F3F19F0F0C0511139C1F3C014D198F3F7
:101320009923C9F35523B1F3951B550BBB27AA2766
:1013300062177307840738F09F5F5F4F220F331FD8
:10134000441FAA1FA9F333D00E2E3AF0E0E830D0A4
:1013500091505040E695001CCAF729D0FE2F27D0A7
:10136000660F771F881FBB1F261737074807AB0775
:10137000B0E809F0BB0B802DBF01FF2793585F4FEA
:101380002AF09E3F510568F0B6C000C15F3FECF304
:10139000983EDCF3869577956795B795F7959F5FAF
:1013A000C9F7880F911D9695879597F90895E1E003
:1013B000660F771F881FBB1F621773078407BA0762
:1013C00020F0621B730B840BBA0BEE1F88F7E095BD
:1013D000089504D06894B111D9C00895BCD088F0A4
:1013E0009F5790F0B92F9927B751A0F0D1F0660F11
:1013F000771F881F991F1AF0BA95C9F712C0B1302C
:1014000081F0C3D0B1E00895C0C0672F782F88273E
:10141000B85F39F0B93FCCF3869577956795B3956A
:10142000D9F73EF490958095709561957F4F8F4FD9
:101430009F4F0895E89409C097FB3EF490958095DE
:10144000709561957F4F8F4F9F4F9923A9F0F92F8A
:1014500096E9BB279395F695879577956795B79508
:10146000F111F8CFFAF4BB0F11F460FF1BC06F5FEE
:101470007F4F8F4F9F4F16C0882311F096E911C000
:10148000772321F09EE8872F762F05C0662371F021
:1014900096E8862F70E060E02AF09A95660F771F35
:1014A000881FDAF7880F9695879597F90895990F11
:1014B0000008550FAA0BE0E8FEEF16161706E8071E
:1014C000F907C0F012161306E407F50798F0621B3F
:1014D000730B840B950B39F40A2661F0232B242B14
:1014E000252B21F408950A2609F4A140A6958FEF33
:1014F000811D811D089597F99F6780E870E060E085
:1015000008959FEF80EC089500240A94161617069C
:1015100018060906089500240A94121613061406E4
:1015200005060895092E0394000C11F4882352F047
:10153000BB0F40F4BF2B11F460FF04C06F5F7F4FFF
:101540008F4F9F4F089557FD9058440F551F59F0E6
:101550005F3F71F04795880F97FB991F61F09F3FA0
:1015600079F087950895121613061406551FF2CFC9
:101570004695F1DF08C0161617061806991FF1CF19
:1015800086957105610508940895E894BB27662740
:101590007727CB0197F908958ADF08F48FEF089534
:1015A0000BD0C0CFB1DF28F0B6DF18F0952309F0DB
:1015B000A2CFA7CF1124EACFC6DFA0F3959FD1F326
:1015C000950F50E0551F629FF001729FBB27F00DF1
:1015D000B11D639FAA27F00DB11DAA1F649F662746
:1015E000B00DA11D661F829F2227B00DA11D621F95
:1015F000739FB00DA11D621F839FA00D611D221F4F
:10160000749F3327A00D611D231F849F600D211D32
:10161000822F762F6A2F11249F5750408AF0E1F0D5
:1016200088234AF0EE0FFF1FBB1F661F771F881F1E
:1016300091505040A9F79E3F510570F05CCFA6CF66
:101640005F3FECF3983EDCF3869577956795B79509
:10165000F795E7959F5FC1F7FE2B880F911D969533
:10166000879597F9089523DF880B990B0895629F5A
:10167000D001739FF001829FE00DF11D649FE00D8A
:10168000F11D929FF00D839FF00D749FF00D659FEB
:10169000F00D9927729FB00DE11DF91F639FB00DEA
:1016A000E11DF91FBD01CF0111240895A1E21A2EF9
:1016B000AA1BBB1BFD010DC0AA1FBB1FEE1FFF1FF6
:1016C000A217B307E407F50720F0A21BB30BE40B46
:1016D000F50B661F771F881F991F1A9469F760958D
:1016E0007095809590959B01AC01BD01CF01089547
:1016F000EE0FFF1F0590F491E02D0994F894FFCFB1
:1017000052656164696E6720696E666F2066726FEC
:101710006D204448542E2E2E00436865636B73750C
:101720006D206F6B004448542048756D696469747E
:10173000793A2000004448542054656D7065726108
:10174000747572653A2000436865636B73756D202C
:101750006572726F720054696D65206F75742065D3
:1017600072726F7200556E6B6E6F776E206572725B
:101770006F7200496E697469616C697A696E67207D
:101780004175746F6D61746564204D6F64756C6133
:101790007220477265656E686F7573652E2E2E0018
:1017A00046696E697368656420496E697469616C25
:1017B000697A6174696F6E006E616E00696E6600B1
:1017C0006F7666002E0088130000FFFFFFFF000009
:0E17D00000006506FB06FB052C060C06550600
:00000001FF
