:100000000C9462000C948A000C948A000C948A0070
:100010000C948A000C948A000C948A000C948A0038
:100020000C948A000C948A000C948A000C948A0028
:100030000C948A000C948A000C948A000C948A0018
:100040000C94C1000C948A000C948A000C948A00D1
:100050000C948A000C948A000C948A000C948A00F8
:100060000C948A000C948A000000000024002700F1
:100070002A0000000000250028002B0000000000DE
:1000800023002600290004040404040404040202DA
:100090000202020203030303030301020408102007
:1000A0004080010204081020010204081020000012
:1000B0000007000201000003040600000000000029
:1000C0000000950011241FBECFEFD8E0DEBFCDBFEA
:1000D00011E0A0E0B1E0E6E1F3E002C005900D928E
:1000E000A030B107D9F711E0A0E0B1E001C01D9246
:1000F000A231B107E1F710E0C4ECD0E004C02297D0
:10010000FE010E948501C23CD107C9F70E94B500DB
:100110000C9489010C9400000895FC01862F6083E3
:10012000718361E00E944401089580E091E00E94A3
:100130008C0083E091E00E948C0086E091E00E94B8
:100140008C00089580E091E06DE070E00E948D00E9
:1001500083E091E06CE070E00E948D0086E091E029
:100160006BE070E00E948D0008950E9409010E94DA
:10017000A20080E090E0892B19F00E940000FDCFE2
:10018000FFCF1F920F920FB60F9211242F933F9320
:100190008F939F93AF93BF9380910D0190910E0128
:1001A000A0910F01B0911001309111010196A11D94
:1001B000B11D232F2D5F2D3720F02D570196A11D46
:1001C000B11D2093110180930D0190930E01A09316
:1001D0000F01B09310018091090190910A01A09143
:1001E0000B01B0910C010196A11DB11D8093090175
:1001F00090930A01A0930B01B0930C01BF91AF91B2
:100200009F918F913F912F910F900FBE0F901F9054
:100210001895789484B5826084BD84B5816084BD6E
:1002200085B5826085BD85B5816085BDEEE6F0E06F
:10023000808181608083E1E8F0E0108280818260CB
:100240008083808181608083E0E8F0E0808181604C
:100250008083E1EBF0E0808184608083E0EBF0E07C
:10026000808181608083EAE7F0E080818460808320
:1002700080818260808380818160808380818068CA
:1002800080831092C1000895CF93DF93482F50E0F0
:10029000CA0186569F4FFC0134914A575F4FFA01BD
:1002A0008491882369F190E0880F991FFC01E85937
:1002B000FF4FA591B491FC01EE58FF4FC591D49129
:1002C000662351F42FB7F8948C91932F909589233E
:1002D0008C93888189230BC0623061F42FB7F89426
:1002E0008C91932F909589238C938881832B88837D
:1002F0002FBF06C09FB7F8948C91832B8C939FBF20
:10030000DF91CF910895EE0FFF1F0590F491E02D3E
:060310000994F894FFCFF0
:00000001FF
