:100000000C9463000C948B000C948B000C948B006C
:100010000C948B000C948B000C948B000C948B0034
:100020000C948B000C948B000C948B000C948B0024
:100030000C948B000C948B000C948B000C948B0014
:100040000C9436010C948B000C945B020C94A90266
:100050000C948B000C948B000C948B000C948B00F4
:100060000C948B000C948B000000000024002700EF
:100070002A0000000000250028002B0000000000DE
:1000800023002600290004040404040404040202DA
:100090000202020203030303030301020408102007
:1000A0004080010204081020010204081020000012
:1000B0000007000201000003040600000000000029
:1000C00000009F00150411241FBECFEFD8E0DEBF53
:1000D000CDBF11E0A0E0B1E0E0EEFBE002C0059092
:1000E0000D92AA35B107D9F712E0AAE5B1E001C037
:1000F0001D92AA31B107E1F710E0C6ECD0E004C0D0
:100100002297FE010E94EA05C23CD107C9F70E946E
:1001100027010C94EE050C9400000895FC018281E7
:100120000895FC01628380810E9406020895FC010B
:10013000862F6083718361E00E94C70108958EE578
:1001400091E00E948D0081E691E00E948D0084E69E
:1001500091E00E948D000895EF92FF920F931F93FC
:100160000E947E017B018C0180915A0190915B017C
:10017000A0915C01B0915D01A8019701281B390B8A
:100180004A0B5B0B8091450190914601A09147017C
:10019000B091480182179307A407B50748F5E0928C
:1001A0005A01F0925B0100935C0110935D018EE5B2
:1001B00091E00E948E0011E0682F61278EE591E0AA
:1001C0000E94910081E691E00E948E00182781E64E
:1001D00091E0612F0E9491008EE591E00E948E00D7
:1001E000682F88EF91E070E04AE050E00E947505CA
:1001F0001F910F91FF90EF9008950F931F9308EFB9
:1002000011E0C80140E855E260E070E00E94E402BD
:10021000C80160E071E00E9494058EE591E06DE018
:1002200070E00E94970081E691E06CE070E00E942F
:10023000970084E691E06BE070E00E949700C801AF
:100240006DE271E00E9494051F910F910895CF9384
:10025000DF930E948C010E94FD00C6E9D2E00E945B
:10026000AC002097E1F30E949602F9CF1F920F9203
:100270000FB60F9211242F933F938F939F93AF93B9
:10028000BF9380916B0190916C01A0916D01B09131
:100290006E0130916F010196A11DB11D232F2D5FBD
:1002A0002D3720F02D570196A11DB11D20936F0110
:1002B00080936B0190936C01A0936D01B0936E01DC
:1002C0008091670190916801A0916901B0916A01E4
:1002D0000196A11DB11D8093670190936801A093C1
:1002E0006901B0936A01BF91AF919F918F913F9146
:1002F0002F910F900FBE0F901F9018958FB7F89405
:1003000020916B0130916C0140916D0150916E0113
:100310008FBFB901CA010895789484B5826084BD05
:1003200084B5816084BD85B5826085BD85B58160F9
:1003300085BDEEE6F0E0808181608083E1E8F0E059
:100340001082808182608083808181608083E0E888
:10035000F0E0808181608083E1EBF0E08081846067
:100360008083E0EBF0E0808181608083EAE7F0E069
:1003700080818460808380818260808380818160CD
:1003800080838081806880831092C1000895CF931C
:10039000DF93482F50E0CA0186569F4FFC013491ED
:1003A0004A575F4FFA018491882369F190E0880FE2
:1003B000991FFC01E859FF4FA591B491FC01EE583B
:1003C000FF4FC591D491662351F42FB7F8948C91C7
:1003D000932F909589238C93888189230BC0623059
:1003E00061F42FB7F8948C91932F909589238C9377
:1003F0008881832B88832FBF06C09FB7F8948C9188
:10040000832B8C939FBFDF91CF910895482F50E0AD
:10041000CA0182559F4FFC012491CA0186569F4F05
:10042000FC0194914A575F4FFA013491332309F448
:1004300040C0222351F1233071F0243028F42130C0
:10044000A1F0223011F514C02630B1F02730C1F0F0
:100450002430D9F404C0809180008F7703C080914C
:1004600080008F7D8093800010C084B58F7702C09C
:1004700084B58F7D84BD09C08091B0008F7703C0A3
:100480008091B0008F7D8093B000E32FF0E0EE0FFD
:10049000FF1FEE58FF4FA591B4912FB7F894662334
:1004A00021F48C919095892302C08C91892B8C9397
:1004B0002FBF089508951F920F920FB60F92112427
:1004C0002F933F934F938F939F93EF93FF9380913D
:1004D000C00082FD1DC04091C6002091B001309146
:1004E000B1012F5F3F4F2F7330708091B201909117
:1004F000B3012817390771F0E091B001F091B10113
:10050000E059FE4F40833093B1012093B00102C007
:100510008091C600FF91EF919F918F914F913F91F4
:100520002F910F900FBE0F901F901895E09104022D
:10053000F0910502E05CFF4F819191912081318122
:10054000821B930B8F739070892B11F00E945A02BB
:1005500008951F920F920FB60F9211242F933F937D
:100560008F939F93EF93FF932091F4013091F501C6
:100570008091F6019091F7012817390731F48091A5
:10058000C1008F7D8093C10014C0E091F601F0910D
:10059000F701EC54FE4F20818091F6019091F70114
:1005A00001968F7390709093F7018093F6012093DA
:1005B000C600FF91EF919F918F913F912F910F90E6
:1005C0000FBE0F901F901895AF92BF92DF92EF92DF
:1005D000FF920F931F93CF93DF93EC017A018B016E
:1005E000DD24403081EE580780E0680780E078071E
:1005F00011F0DD24D39491E0A92EB12CEC89FD8972
:10060000DD2069F0C50108A002C0880F991F0A9477
:10061000E2F7808360E079E08DE390E005C010822E
:1006200060E874E88EE190E0A80197010E94C60599
:10063000215030404040504056954795379527957A
:1006400080E12030380720F0DD2011F0DD24D6CF06
:10065000E889F9893083EA89FB89208319A2EE8928
:10066000FF89408121E030E0C9010C8C02C0880F75
:10067000991F0A94E2F7482B4083EE89FF89408155
:10068000C9010D8C02C0880F991F0A94E2F7482B0C
:100690004083EE89FF894081C9010E8C02C0880F1A
:1006A000991F0A94E2F7482B4083EE89FF898081E5
:1006B0000F8C02C0220F331F0A94E2F720952823E3
:1006C0002083DF91CF911F910F91FF90EF90DF90EA
:1006D000BF90AF900895DC011C96ED91FC911D97A1
:1006E000E05CFF4F2191319180819181281B390B72
:1006F0002F733070C9010895DC011C96ED91FC91B7
:100700001D97E05CFF4F20813181E054F040DF0114
:10071000AE5BBF4F8D919C9111972817390719F443
:100720002FEF3FEF07C08D919C91E80FF91F80815B
:10073000282F30E0C9010895DC011C96ED91FC9151
:100740001D97E05CFF4F20813181E054F040DF01D4
:10075000AE5BBF4F8D919C9111972817390719F403
:100760002FEF3FEF10C08D919C911197E80FF91F6B
:1007700020818D919C91119701968F7390701196A5
:100780009C938E9330E0C9010895DC0191968C9181
:100790009197882339F05496ED91FC91559780817B
:1007A00086FFF9CF91961C920895CF93DF93EC01C9
:1007B000EE85FF85E05CFF4F20813181E054F04001
:1007C0002F5F3F4F2F733070DF01AE5BBF4F8D91B6
:1007D0009C91119728173907D1F3E05CFF4F808176
:1007E0009181E054F040E80FF91F6083EE85FF85AA
:1007F000E05CFF4F31832083EE89FF89208181E017
:1008000090E00F8C02C0880F991F0A94E2F7282B02
:10081000208381E089A3EC89FD89808180648083C5
:1008200081E090E0DF91CF9108951092FB0110924A
:10083000FA0188EE93E0A0E0B0E08093FC01909391
:10084000FD01A093FE01B093FF018DE491E0909330
:10085000F9018093F80180E791E09093050280937D
:10086000040284EB91E0909307028093060285ECEA
:1008700090E0909309028093080284EC90E09093BA
:100880000B0280930A0280EC90E090930D0280931B
:100890000C0281EC90E090930F0280930E0282ECA8
:1008A00090E0909311028093100286EC90E0909378
:1008B00013028093120284E08093140283E08093F9
:1008C000150287E08093160285E08093170281E08D
:1008D000809318020895CF92DF92EF92FF920F93C8
:1008E0001F93CF93DF937C016B018A01C0E0D0E0BE
:1008F0000FC0D6016D916D01D701ED91FC91019072
:10090000F081E02DC7010995C80FD91F0150104093
:100910000115110571F7CE01DF91CF911F910F9154
:10092000FF90EF90DF90CF900895EF92FF920F939A
:100930001F938C01DC01ED91FC910190F081E02D81
:100940006DE009957C01D801ED91FC910190F08159
:10095000E02DC8016AE009959C012E0D3F1DC901DB
:100960001F910F91FF90EF900895CF93DF93EC01CB
:100970006115710519F420E030E00FC0DB010D9026
:100980000020E9F71197A61BB70BE881F9810280D7
:10099000F381E02DAD0109959C01C901DF91CF9153
:1009A00008954F925F927F928F929F92AF92BF92E3
:1009B000CF92DF92EF92FF920F931F93DF93CF932B
:1009C000CDB7DEB7A1970FB6F894DEBF0FBECDBF8F
:1009D0002C01742ECB01223008F42AE019A231E256
:1009E000C32ED12CCC0EDD1E822E9924AA24BB242A
:1009F000672D752FA50194010E94C60579018A0112
:100A0000C801B701A50194010E94A705472D461B07
:100A10000894C108D1084A3014F4405D01C0495C13
:100A2000F6014083E114F1040105110521F07E2C4B
:100A30005F2DC801DDCFC201B6010E94B504A196A9
:100A40000FB6F894DEBF0FBECDBFCF91DF911F91DF
:100A50000F91FF90EF90DF90CF90BF90AF909F905D
:100A60008F907F905F904F900895CF92DF92EF929A
:100A7000FF920F931F93CF93DF93EC016A017B01E9
:100A80002115310541F4E881F9810190F081E02DD3
:100A9000642F09951FC02A303105D1F477FF17C0A4
:100AA000E881F9810190F081E02D6DE209958C01DA
:100AB00044275527BA014C195D096E097F09CE01FB
:100AC0002AE00E94D1049801280F391F04C02AE0AF
:100AD0000E94D1049C01C901DF91CF911F910F9118
:100AE000FF90EF90DF90CF900895CF92DF92EF923A
:100AF000FF920F931F936C017B019A010027F7FC73
:100B00000095102FB801A7010E9435058C01C60180
:100B10000E949504080F191FC8011F910F91FF90A3
:100B2000EF90DF90CF900895EF92FF920F931F9375
:100B30007C010E94B5048C01C7010E949504080F36
:100B4000191FC8011F910F91FF90EF900895629FA8
:100B5000D001739FF001829FE00DF11D649FE00DB5
:100B6000F11D929FF00D839FF00D749FF00D659F16
:100B7000F00D9927729FB00DE11DF91F639FB00D15
:100B8000E11DF91FBD01CF0111240895A1E21A2E24
:100B9000AA1BBB1BFD010DC0AA1FBB1FEE1FFF1F21
:100BA000A217B307E407F50720F0A21BB30BE40B71
:100BB000F50B661F771F881F991F1A9469F76095B8
:100BC0007095809590959B01AC01BD01CF01089572
:100BD000EE0FFF1F0590F491E02D0994F894FFCFDC
:100BE000496E697469616C697A696E6720417574D0
:100BF0006F6D61746564204D6F64756C6172204720
:100C00007265656E686F7573652E2E2E0046696E6F
:100C1000697368656420496E697469616C697A6199
:100C200074696F6E008813000000000000D5036B2C
:0A0C3000046B039C037C03C5030062
:00000001FF
