:100000000C9463000C948B000C948B000C948B006C
:100010000C948B000C948B000C948B000C948B0034
:100020000C948B000C948B000C948B000C948B0024
:100030000C948B000C948B000C948B000C948B0014
:100040000C94F1060C948B000C94F2080C9440096B
:100050000C948B000C948B000C948B000C948B00F4
:100060000C948B000C948B000000000024002700EF
:100070002A0000000000250028002B0000000000DE
:1000800023002600290004040404040404040202DA
:100090000202020203030303030301020408102007
:1000A0004080010204081020010204081020000012
:1000B0000007000201000003040600000000000029
:1000C0000000C704AC0A11241FBECFEFD8E0DEBF8A
:1000D000CDBF11E0A0E0B1E0EEE3FFE102C005908A
:1000E0000D92A43FB107D9F713E0A4EFB1E001C02E
:1000F0001D92AA30B107E1F710E0C6ECD0E004C0D1
:100100002297FE010E94990FC23CD107C9F70E94B5
:10011000E2060C949D0F0C9400000895FC0182816E
:100120000895FC01628380810E944A080895FC01C1
:10013000862F6083718361E00E940B0808952F92DF
:100140003F924F925F926F927F928F929F92AF9267
:10015000BF92CF92DF92EF92FF920F931F93DF93A4
:10016000CF9300D000D0CDB7DEB71C0149835A83AE
:100170006B837C834801590126013701CB01BA0109
:1001800020E030E040E050E00E949C0D87FD8CC0F4
:10019000C501B40120E030E040E050E00E949C0D39
:1001A00087FD82C0C701B60120E030E040E050E0AA
:1001B0000E949C0D87FD78C089819A81AB81BC81AA
:1001C000F10180839183A283B383D10114968D9230
:1001D0009D92AD92BC921797C086D186E286F38637
:1001E00064A575A586A597A50E94390E20E030E08C
:1001F0004AE754E40E94A00D7B018C0189819A8119
:10020000AB81BC81F10184879587A687B787C5013B
:10021000B401A80197010E94EF0E5B016C01D101AE
:1002200050966D937D938D939C935397C301B20128
:10023000A80197010E94A00D7B018C01F101648B44
:10024000758B868B978B808D918D019769F560E01A
:1002500070E080E090E029813A814B815C810E94CE
:10026000370DD1011C966D937D938D939C931F97B1
:1002700060E070E080E090E0A60195010E94370DFB
:10028000F101608B718B828B938B60E070E080E07A
:1002900090E0A80197010E94370DD10154966D930B
:1002A0007D938D939C9357970F900F900F900F9085
:1002B000CF91DF911F910F91FF90EF90DF90CF9042
:1002C000BF90AF909F908F907F906F905F904F9076
:1002D0003F902F9008954F925F926F927F928F92EE
:1002E0009F92AF92BF92CF92DF92EF92FF920F93C5
:1002F0001F93CF93DF93EC013A014B017801890101
:10030000CB01BA01A80197010E94EB0E87FF4EC0F6
:1003100068AA79AA8AAA9BAAECAAFDAA0EAB1FAB6F
:1003200088AD882309F442C04C8C5D8CF201A0801A
:10033000B180C280D380C601B501A80197010E9497
:10034000EB0E181634F4F201E082F182028313837B
:100350000DC0C601B501A40193010E949C0D882324
:100360002CF4F2016082718282829382ACA0BDA0E3
:10037000CEA0DFA0ECA8FDA80EA91FA9C601B5015B
:10038000A80197010E94EB0E181664F0E8A8F9A8DE
:100390000AA91BA9C601B501A80197010E949C0DDD
:1003A000882324F4ECA2FDA20EA31FA3DF91CF911A
:1003B0001F910F91FF90EF90DF90CF90BF90AF9083
:1003C0009F908F907F906F905F904F9008959F9235
:1003D000AF92BF92CF92DF92EF92FF920F931F9353
:1003E000CF93DF93EC0199246130710511F49924C6
:1003F000939488AD91E08927981681F5EC8DFD8D59
:10040000E080F18002811381ECA2FDA20EA31FA364
:10041000EA8DFB8D80819181A281B38188A799A704
:10042000AAA7BBA7ACA8BDA8CEA8DFA8C801B701E2
:10043000A60195010E94EB0E181664F0A8A8B9A8B1
:10044000CAA8DBA8C801B701A60195010E949C0DAE
:10045000882324F4ACA2BDA2CEA2DFA298AEDF9185
:10046000CF911F910F91FF90EF90DF90CF90BF90B1
:10047000AF909F9008952F923F924F925F926F920C
:100480007F928F929F92AF92BF92CF92DF92EF9224
:10049000FF920F931F93DF93CF9300D000D000D033
:1004A000CDB7DEB79E838D83DC01D8968C918823EF
:1004B00009F4E5C00E94390769837A838B839C83A2
:1004C000ED81FE8180A191A1A2A1B3A129813A81F0
:1004D0004B815C81281B390B4A0B5B0B84A595A5CE
:1004E000A6A5B7A5281739074A075B0708F4C7C0B0
:1004F000028CF38DE02D2080318042805380AD81CD
:10050000BE815E96ED91FC915F97608171818281E1
:100510009381A20191010E94370D3B014C01ED81B5
:10052000FE8120893189428953890E94EF0EAD8175
:10053000BE8194962D913D914D915C9197970E942B
:10054000380D7B018C01ED81FE8164A375A386A328
:1005500097A3A4A8B5A8C6A8D7A8A60195010E94EC
:10056000EB0E181674F0ED81FE81A0A8B1A8C2A808
:10057000D3A8C801B701A60195010E949C0D88234C
:1005800044F4AD81BE819496AD92BD92CD92DC9241
:100590009797C401B301ED81FE8124853585468599
:1005A00057850E94EF0EAD81BE8194962D913D91AD
:1005B0004D915C9197970E94380D7B018C01C2018F
:1005C000B101ED81FE8120A531A542A553A50E9470
:1005D000370DAD81BE8154962D913D914D915C9129
:1005E00057970E94EF0E9B01AC01C801B7010E9412
:1005F000370D7B018C01ED81FE81D4A8C5A8B6A87A
:10060000A7A82D2D3C2D4B2D5A2D0E94EB0E181610
:10061000BCF0AD81BE81D096DC90D097D196CC90C5
:10062000D197D296BC90D297D396AC90C801B7011F
:100630002D2D3C2D4B2D5A2D0E949C0D882334F4DA
:100640008D2D9C2DAB2DBA2D7C018D01AD81BE81F0
:100650005C96ED91FC915D97E082F18202831383B9
:10066000FD0120A631A642A653A689819A81AB81BD
:10067000BC8180A391A3A2A3B3A381E001C080E0C9
:1006800026960FB6F894DEBF0FBECDBFCF91DF9197
:100690001F910F91FF90EF90DF90CF90BF90AF90A0
:1006A0009F908F907F906F905F904F903F902F9092
:1006B00008954F925F926F927F928F929F92AF9226
:1006C000BF92CF92DF92EF92FF920F931F93DF932F
:1006D000CF93CDB7DEB74C0127013801EF88F88CF6
:1006E000FC01558F448F738F628F378F268F10AE2A
:1006F00040E050E060E070E000E010E02FE733E41D
:100700000E946B0184E690E0A0E0B0E0F40184A7D1
:1007100095A7A6A7B7A780AD882391F1808D918D6D
:10072000E816F90669F160E070E080E090E0248569
:100730003585468557850E94370DF4016487758796
:100740008687978760E070E080E090E020893189BB
:10075000428953890E94370DF401608B718B828B23
:10076000938B60E070E080E090E0248935894689D1
:1007700057890E94370DF401648B758B868B978B9C
:10078000F401F18EE08EC401B301A201960185014E
:10079000CB88DC88ED88FE880E949F000E94390784
:1007A000F40124A535A546A557A5621B730B840B40
:1007B000950B60A371A382A393A3CF91DF911F91A7
:1007C0000F91FF90EF90DF90CF90BF90AF909F90F0
:1007D0008F907F906F905F904F9008958F929F922F
:1007E000AF92BF92CF92DF92EF92FF920F931F933F
:1007F000CF93DF935C01D62EE42EFC011086118688
:10080000128613861486862F61E00E940B088D2DB8
:1008100060E00E944A08FF2400E010E0C801B70130
:100820000E946D078D2D61E00E944A0888E290E0E9
:100830000E94C6078D2D60E00E940B08C0E9D1E040
:1008400002C0219741F18D2D0E949E08892BC9F38A
:10085000C0E9D1E002C02197F1F08D2D0E949E08E1
:100860000197C9F303C0219741F415C040E8C42E95
:10087000882438E2932EC0E9D1E08D2D0E949E0895
:10088000892B89F30E9447077B018C01C0E9D1E0E5
:1008900005C0219719F42EEF3FEF2CC08D2D0E943B
:1008A0009E080197B1F30E9447076E197F09800BDC
:1008B000910B693271058105910530F0F501E80D64
:1008C000F11D80858C2980878C2D90E095958795EA
:1008D000C82E882319F4839480E8C82E9A9459F678
:1008E0008D2D61E00E940B088D2D61E00E944A0869
:1008F00020E030E0C901DF91CF911F910F91FF906F
:10090000EF90DF90CF90BF90AF909F908F90089521
:10091000EF92FF920F931F93CF93DF93EC0142E18D
:100920000E94EE037C01009769F080E090ECA9E75B
:10093000B4EC88839983AA83BB838C839D83AE8325
:10094000BF831DC00885602F70E080E090E00E94AA
:10095000390E688379838A839B831A85612F70E0BF
:1009600080E090E00E94390E6C837D838E839F83AC
:10097000100F8C85811719F0EE24EA94FE2CC70124
:10098000DF91CF911F910F91FF90EF900895AF925B
:10099000BF92CF92DF92EF92FF920F931F9388EF57
:1009A00091E00E948D008BEF91E00E948D008EEF10
:1009B00091E00E948D0000D000D000D080E090E057
:1009C000A0E8BFE3EDB7FEB781839283A383B4832E
:1009D000168215828EE192E062E172E046E152E019
:1009E0002EE032E00F2EF0E0EF2EF0E0FF2EF0E0F0
:1009F0000F2FF0E41F2FF02D0F2EF0E0AF2EF0E0C0
:100A0000BF2EF0EACF2EF0E4DF2EF02D0E94590326
:100A10008DB79EB706960FB6F8949EBF0FBE8DBFDA
:100A20001F910F91FF90EF90DF90CF90BF90AF900C
:100A30000895AF92BF92CF92DF92EF92FF920F9301
:100A40001F930E9439075B016C018091F401909122
:100A5000F501A091F601B091F701A6019501281BBF
:100A6000390B4A0B5B0B8091DA019091DB01A0916D
:100A7000DC01B091DD0182179307A407B50708F0E8
:100A8000A3C0A092F401B092F501C092F601D092F9
:100A9000F70188EF91E061E00E94910088EE92E01A
:100AA00060E071E00E94240D81E092E06CE00E9421
:100AB00088042FEF8F3F920709F470C0009729F048
:100AC0008E5F9F4F09F074C06EC088EE92E069E1BE
:100AD00071E00E94240D88EE92E065E271E00E94D0
:100AE0003A0C409101025091020260910302709110
:100AF000040288EE92E022E030E00E94210D609135
:100B000001027091020280910302909104020E94FE
:100B1000080E7093E1016093E00188EE92E064E3D7
:100B200071E00E94240D88EE92E065E371E00E947E
:100B30003A0C4091050250910602609107027091B3
:100B4000080288EE92E022E030E00E94210D6091E0
:100B500005027091060280910702909108020E949E
:100B6000080E7093DF016093DE0188EE92E064E38B
:100B700071E00E94240D6091DE017091DF018827F1
:100B800077FD8095982F0E943B0E60931202709320
:100B90001302809314029093150210C088EE92E025
:100BA00067E471E009C088EE92E066E571E004C098
:100BB00088EE92E065E671E00E94240D88EE92E0F6
:100BC00064E371E00E94240D88EF91E00E948E00A2
:100BD000882329F088EF91E060E00E9491008EE187
:100BE00092E00E943B02E0901A02F0901B020091FA
:100BF0001C0210911D028091E2019091E3019C0181
:100C0000442737FD4095542FD601C5018E199F0901
:100C1000A00BB10B281739074A075B07E8F52E0D23
:100C20003F1D401F511F20931A0230931B02409317
:100C30001C0250931D0288EE92E063E771E00E946F
:100C4000240D00E010E080911A0290911B02A09107
:100C50001C02B0911D02A6019501281B390B4A0BFD
:100C60005B0BCA01B9010E94390E9B01AC01609176
:100C700016027091170280911802909119020E9439
:100C8000EB0E181614F401E010E088EE92E0B801C3
:100C90004AE050E00E941B0C10E080911A029091F3
:100CA0001B02A0911C02B0911D02A81AB90ACA0A1F
:100CB000DB0AC601B5010E94390E9B01AC016091AF
:100CC00016027091170280911802909119020E94E9
:100CD000EB0E18160CF411E081E018278BEF91E071
:100CE000612F0E9491001F910F91FF90EF90DF9074
:100CF000CF90BF90AF900895CF92DF92EF92FF9286
:100D00000F931F9398EEC92E92E0D92EC60140E8AA
:100D100055E260E070E00E947B09C60166E871E080
:100D20000E94240D88EF91E06DE070E00E94970032
:100D30008BEF91E06BE070E00E9497008EEF91E006
:100D40006AE070E00E9497000E94390760931A02DF
:100D500070931B0280931C0290931D0280E090E030
:100D6000A0EAB1E480930E0290930F02A0931002C8
:100D7000B09311028EE1E82E82E0F82E6091E2013C
:100D80007091E301882777FD8095982F0E943B0E94
:100D90008B019C01C70140E050E060E070E00E94E0
:100DA0006B01C70161E070E00E94E701C60163EBDF
:100DB00071E00E94240D1F910F91FF90EF90DF9042
:100DC000CF900895CF93DF930E94D0070E947C06B6
:100DD000CDE2D9E00E9419052097E1F30E942D0988
:100DE000F9CF1F920F920FB60F9211242F933F93BA
:100DF0008F939F93AF93BF9380915B0290915C021E
:100E0000A0915D02B0915E0230915F020196A11D3A
:100E1000B11D232F2D5F2D3720F02D570196A11DD9
:100E2000B11D20935F0280935B0290935C02A093BC
:100E30005D02B0935E028091570290915802A0919A
:100E40005902B0915A020196A11DB11D809357021B
:100E500090935802A0935902B0935A02BF91AF9158
:100E60009F918F913F912F910F900FBE0F901F90E8
:100E700018958FB7F89420915B0230915C024091F5
:100E80005D0250915E028FBFB901CA0108959FB7FC
:100E9000F894209157023091580240915902509194
:100EA0005A0286B5A89B06C08F3F21F02F5F3F4FA7
:100EB0004F4F5F4F9FBF542F432F322F2227280FB2
:100EC000311D411D511D82E0220F331F441F551F4C
:100ED0008A95D1F7B901CA0108959B01AC017FB78A
:100EE000F8948091570290915802A0915902B091C4
:100EF0005A0266B5A89B05C06F3F19F00196A11D67
:100F0000B11D7FBFBA2FA92F982F8827860F911D5B
:100F1000A11DB11D62E0880F991FAA1FBB1F6A9512
:100F2000D1F7BC012DC0FFB7F89480915702909182
:100F30005802A0915902B0915A02E6B5A89B05C08B
:100F4000EF3F19F00196A11DB11DFFBFBA2FA92FC8
:100F5000982F88278E0F911DA11DB11DE2E0880FEB
:100F6000991FAA1FBB1FEA95D1F7861B970B885EB6
:100F70009340C8F2215030404040504068517C4F6F
:100F8000211531054105510571F60895019739F094
:100F9000880F991F880F991F02970197F1F70895FD
:100FA000789484B5826084BD84B5816084BD85B544
:100FB000826085BD85B5816085BDEEE6F0E080810B
:100FC00081608083E1E8F0E010828081826080832C
:100FD000808181608083E0E8F0E0808181608083AF
:100FE000E1EBF0E0808184608083E0EBF0E08081E1
:100FF00081608083EAE7F0E0808184608083808183
:10100000826080838081816080838081806880832A
:101010001092C1000895CF93DF93482F50E0CA018A
:1010200086569F4FFC0134914A575F4FFA018491D5
:10103000882369F190E0880F991FFC01E859FF4F60
:10104000A591B491FC01EE58FF4FC591D491662350
:1010500051F42FB7F8948C91932F909589238C930A
:10106000888189230BC0623061F42FB7F8948C918A
:10107000932F909589238C938881832B88832FBF0E
:1010800006C09FB7F8948C91832B8C939FBFDF9100
:10109000CF910895482F50E0CA0182559F4FFC011F
:1010A0002491CA0186569F4FFC0194914A575F4F85
:1010B000FA013491332309F440C0222351F1233043
:1010C00071F0243028F42130A1F0223011F514C041
:1010D0002630B1F02730C1F02430D9F404C080911B
:1010E00080008F7703C0809180008F7D8093800087
:1010F00010C084B58F7702C084B58F7D84BD09C0D0
:101100008091B0008F7703C08091B0008F7D809375
:10111000B000E32FF0E0EE0FFF1FEE58FF4FA59158
:10112000B4912FB7F894662321F48C91909589237C
:1011300002C08C91892B8C932FBF0895682F70E08B
:10114000CB0182559F4FFC012491CB0186569F4FC6
:10115000FC0144916A577F4FFB019491992319F444
:1011600020E030E03CC0222351F1233071F02430E4
:1011700028F42130A1F0223011F514C02630B1F04E
:101180002730C1F02430D9F404C0809180008F77DB
:1011900003C0809180008F7D8093800010C084B553
:1011A0008F7702C084B58F7D84BD09C08091B00067
:1011B0008F7703C08091B0008F7D8093B000892F1E
:1011C00090E0880F991F84589F4FFC01A591B4911E
:1011D0008C9120E030E0842311F021E030E0C9015F
:1011E000089508951F920F920FB60F9211242F9316
:1011F0003F934F938F939F93EF93FF938091C00002
:1012000082FD1DC04091C6002091A0023091A10234
:101210002F5F3F4F2F7330708091A2029091A302F5
:101220002817390771F0E091A002F091A102E05A6D
:10123000FD4F40833093A1022093A00202C0809111
:10124000C600FF91EF919F918F914F913F912F9108
:101250000F900FBE0F901F901895E091F402F0913F
:10126000F502E05CFF4F8191919120813181821BD9
:10127000930B8F739070892B11F00E94F1080895E1
:101280001F920F920FB60F9211242F933F938F93BB
:101290009F93EF93FF932091E4023091E5028091B8
:1012A000E6029091E7022817390731F48091C100D6
:1012B0008F7D8093C10014C0E091E602F091E702B7
:1012C000EC55FD4F20818091E6029091E702019656
:1012D0008F7390709093E7028093E6022093C6008C
:1012E000FF91EF919F918F913F912F910F900FBEA2
:1012F0000F901F901895AF92BF92DF92EF92FF92DE
:101300000F931F93CF93DF93EC017A018B01DD24C0
:10131000403081EE580780E0680780E0780711F0E0
:10132000DD24D39491E0A92EB12CEC89FD89DD2038
:1013300069F0C50108A002C0880F991F0A94E2F75E
:10134000808360E079E08DE390E005C0108260E882
:1013500074E88EE190E0A80197010E94750F21507A
:10136000304040405040569547953795279580E14D
:101370002030380720F0DD2011F0DD24D6CFE889B9
:10138000F9893083EA89FB89208319A2EE89FF89D4
:10139000408121E030E0C9010C8C02C0880F991F08
:1013A0000A94E2F7482B4083EE89FF894081C90106
:1013B0000D8C02C0880F991F0A94E2F7482B4083D6
:1013C000EE89FF894081C9010E8C02C0880F991FE8
:1013D0000A94E2F7482B4083EE89FF8980810F8CC5
:1013E00002C0220F331F0A94E2F72095282320839E
:1013F000DF91CF911F910F91FF90EF90DF90BF9001
:10140000AF900895DC011C96ED91FC911D97E05C76
:10141000FF4F2191319180819181281B390B2F73CE
:101420003070C9010895DC011C96ED91FC911D9767
:10143000E05CFF4F20813181E054F040DF01AE5B82
:10144000BF4F8D919C9111972817390719F42FEFF1
:101450003FEF07C08D919C91E80FF91F8081282FE5
:1014600030E0C9010895DC011C96ED91FC911D97B7
:10147000E05CFF4F20813181E054F040DF01AE5B42
:10148000BF4F8D919C9111972817390719F42FEFB1
:101490003FEF10C08D919C911197E80FF91F2081AB
:1014A0008D919C91119701968F73907011969C93DA
:1014B0008E9330E0C9010895DC0191968C9191974B
:1014C000882339F05496ED91FC915597808186FFE1
:1014D000F9CF91961C920895CF93DF93EC01EE859E
:1014E000FF85E05CFF4F20813181E054F0402F5FA9
:1014F0003F4F2F733070DF01AE5BBF4F8D919C91DA
:10150000119728173907D1F3E05CFF4F8081918153
:10151000E054F040E80FF91F6083EE85FF85E05C42
:10152000FF4F31832083EE89FF89208181E090E0A5
:101530000F8C02C0880F991F0A94E2F7282B208392
:1015400081E089A3EC89FD8980818064808381E0CA
:1015500090E0DF91CF9108951092EB021092EA0291
:1015600088EE93E0A0E0B0E08093EC029093ED026F
:10157000A093EE02B093EF0288EE91E09093E9021F
:101580008093E80280E692E09093F5028093F40263
:1015900084EA92E09093F7028093F60285EC90E063
:1015A0009093F9028093F80284EC90E09093FB0210
:1015B0008093FA0280EC90E09093FD028093FC020D
:1015C00081EC90E09093FF028093FE0282EC90E029
:1015D000909301038093000386EC90E090930303C3
:1015E0008093020384E08093040383E080930503E7
:1015F00087E08093060385E08093070381E0809372
:1016000008030895CF92DF92EF92FF920F931F93FA
:10161000CF93DF937C016B018A01C0E0D0E00FC063
:10162000D6016D916D01D701ED91FC910190F08192
:10163000E02DC7010995C80FD91F015010400115B1
:10164000110571F7CE01DF91CF911F910F91FF909E
:10165000EF90DF90CF900895EF92FF920F931F933A
:101660008C01DC01ED91FC910190F081E02D6DE0A9
:1016700009957C01D801ED91FC910190F081E02D5C
:10168000C8016AE009959C012E0D3F1DC9011F91FB
:101690000F91FF90EF900895CF93DF93EC016115C8
:1016A000710519F420E030E00FC0DB010D9000203F
:1016B000E9F71197A61BB70BE881F9810280F38146
:1016C000E02DAD0109959C01C901DF91CF910895ED
:1016D0004F925F927F928F929F92AF92BF92CF92E2
:1016E000DF92EF92FF920F931F93DF93CF93CDB7CB
:1016F000DEB7A1970FB6F894DEBF0FBECDBF2C01A9
:10170000742ECB01223008F42AE019A231E2C32E54
:10171000D12CCC0EDD1E822E9924AA24BB24672D49
:10172000752FA50194010E94750F79018A01C801E6
:10173000B701A50194010E94560F472D461B08943E
:10174000C108D1084A3014F4405D01C0495CF6017B
:101750004083E114F1040105110521F07E2C5F2D79
:10176000C801DDCFC201B6010E944C0BA1960FB695
:10177000F894DEBF0FBECDBFCF91DF911F910F91C7
:10178000FF90EF90DF90CF90BF90AF909F908F90A1
:101790007F905F904F900895DC012115310541F451
:1017A000ED91FC910190F081E02D642F0995089551
:1017B0000E94680B0895CF92DF92EF92FF920F93F1
:1017C0001F93CF93DF93EC016A017B012115310553
:1017D00041F4E881F9810190F081E02D642F0995B1
:1017E0001FC02A303105D1F477FF17C0E881F98195
:1017F0000190F081E02D6DE209958C014427552779
:10180000BA014C195D096E097F09CE012AE00E94D8
:10181000680B9801280F391F04C02AE00E94680B4A
:101820009C01C901DF91CF911F910F91FF90EF9023
:10183000DF90CF900895CF92DF92EF92FF920F93B7
:101840001F936C017B019A010027F7FC0095102F74
:10185000B801A7010E94DB0B8C01C6010E942C0B72
:10186000080F191FC8011F910F91FF90EF90DF9093
:10187000CF9008950E944C0B08957F928F929F9273
:10188000AF92BF92CF92DF92EF92FF920F931F938E
:10189000CF93DF934C017A018B01722ECB01BA01F9
:1018A000A80197010E94520F882321F0C4016CEC1B
:1018B00071E021C0C0E0D0E057016801E894D7F89A
:1018C000C601B5012FEF3FEF4FE75FE70E94520FD0
:1018D000882351F4C601B5012FEF3FEF4FE75FE7D3
:1018E0000E949C0D181614F0C1E0D0E0219739F049
:1018F000C40160ED71E00E944C0BEC0193C0C80183
:10190000B7012FEF3FEF4FE75FE40E94EB0E181691
:1019100054F0C801B7012FEF3FEF4FE75FEC0E9493
:101920009C0D882324F4C40164ED71E0E4CFC80168
:10193000B70120E030E040E050E00E949C0D87FDC0
:1019400003C0C0E0D0E00EC0D401ED91FC91019045
:10195000F081E02DC4016DE20995EC0117FB1095B3
:1019600017F9109520E030E040E05FE3DD240BC084
:10197000CA01B90120E030E040E251E40E94A00D2C
:101980009B01AC01D394D71498F3C801B7010E940E
:10199000380D5B016C010E940D0E7B018C01C401AE
:1019A000B801A7012AE030E00E94CC0BC80FD91F74
:1019B000772039F0C40168ED71E00E944C0BC80F2C
:1019C000D91FC801B7010E94390E9B01AC01C601A5
:1019D000B5010E94370D24C020E030E040E251E420
:1019E0000E94EF0E7B018C010E94080E5B016C01CE
:1019F000CC24B7FCC094DC2CC401B601A5012AE0BC
:101A000030E00E94DB0BC80FD91FC601B5010E9450
:101A10003B0E9B01AC01C801B7010E94370D7A94BF
:101A20007720D1F6CE01DF91CF911F910F91FF90DA
:101A3000EF90DF90CF90BF90AF909F908F907F906E
:101A400008950E943D0C0895EF92FF920F931F930B
:101A50007C010E944C0B8C01C7010E942C0B080FCB
:101A6000191FC8011F910F91FF90EF9008955058D2
:101A7000BB27AA270ED075C166D130F06BD120F0FC
:101A800031F49F3F11F41EF45BC10EF4E095E7FBC7
:101A900051C1E92F77D180F3BA1762077307840722
:101AA000950718F071F49EF58FC10EF4E0950B2E9A
:101AB000BA2FA02D0B01B90190010C01CA01A001A0
:101AC0001124FF27591B99F0593F50F4503E68F1FB
:101AD0001A16F040A22F232F342F4427585FF3CF3C
:101AE000469537952795A795F0405395C9F77EF40D
:101AF0001F16BA0B620B730B840BBAF09150A1F056
:101B0000FF0FBB1F661F771F881FC2F70EC0BA0FDB
:101B1000621F731F841F48F4879577956795B79563
:101B2000F7959E3F08F0B3CF9395880F08F099275B
:101B3000EE0F979587950895D9D008F481E0089520
:101B40000CD00FC107D140F0FED030F021F45F3F40
:101B500019F0F0C0511139C1F3C014D198F3992391
:101B6000C9F35523B1F3951B550BBB27AA27621761
:101B70007307840738F09F5F5F4F220F331F441FA6
:101B8000AA1FA9F333D00E2E3AF0E0E830D09150DE
:101B90005040E695001CCAF729D0FE2F27D0660FCB
:101BA000771F881FBB1F261737074807AB07B0E80A
:101BB00009F0BB0B802DBF01FF2793585F4F2AF020
:101BC0009E3F510568F0B6C000C15F3FECF3983E00
:101BD000DCF3869577956795B795F7959F5FC9F77D
:101BE000880F911D9695879597F90895E1E0660F06
:101BF000771F881FBB1F621773078407BA0720F07F
:101C0000621B730B840BBA0BEE1F88F7E0950895E7
:101C100004D06894B111D9C00895BCD088F09F5702
:101C200090F0B92F9927B751A0F0D1F0660F771F28
:101C3000881F991F1AF0BA95C9F712C0B13081F008
:101C4000C3D0B1E00895C0C0672F782F8827B85F50
:101C500039F0B93FCCF3869577956795B395D9F769
:101C60003EF490958095709561957F4F8F4F9F4F73
:101C70000895E89409C097FB3EF49095809570957F
:101C800061957F4F8F4F9F4F9923A9F0F92F96E9C8
:101C9000BB279395F695879577956795B795F1113D
:101CA000F8CFFAF4BB0F11F460FF1BC06F5F7F4FDA
:101CB0008F4F9F4F16C0882311F096E911C07723EC
:101CC00021F09EE8872F762F05C0662371F096E8F5
:101CD000862F70E060E02AF09A95660F771F881FC4
:101CE000DAF7880F9695879597F90895990F000868
:101CF000550FAA0BE0E8FEEF16161706E807F907DE
:101D0000C0F012161306E407F50798F0621B730B78
:101D1000840B950B39F40A2661F0232B242B252BF9
:101D200021F408950A2609F4A140A6958FEF811D9C
:101D3000811D089597F99F6780E870E060E008953D
:101D40009FEF80EC089500240A94161617061806D3
:101D50000906089500240A941216130614060506AF
:101D60000895092E0394000C11F4882352F0BB0F40
:101D700040F4BF2B11F460FF04C06F5F7F4F8F4FA3
:101D80009F4F089557FD9058440F551F59F05F3FDE
:101D900071F04795880F97FB991F61F09F3F79F08D
:101DA00087950895121613061406551FF2CF46950F
:101DB000F1DF08C0161617061806991FF1CF869591
:101DC0007105610508940895E894BB276627772775
:101DD000CB0197F908958ADF08F48FEF08950BD0AF
:101DE000C0CFB1DF28F0B6DF18F0952309F0A2CFFD
:101DF000A7CF1124EACFC6DFA0F3959FD1F3950FAB
:101E000050E0551F629FF001729FBB27F00DB11D7E
:101E1000639FAA27F00DB11DAA1F649F6627B00D0E
:101E2000A11D661F829F2227B00DA11D621F739FF7
:101E3000B00DA11D621F839FA00D611D221F749F05
:101E40003327A00D611D231F849F600D211D822F4C
:101E5000762F6A2F11249F5750408AF0E1F0882393
:101E60004AF0EE0FFF1FBB1F661F771F881F9150A0
:101E70005040A9F79E3F510570F05CCFA6CF5F3F61
:101E8000ECF3983EDCF3869577956795B795F795D3
:101E9000E7959F5FC1F7FE2B880F911D969587955B
:101EA00097F9089523DF880B990B0895629FD0015D
:101EB000739FF001829FE00DF11D649FE00DF11D05
:101EC000929FF00D839FF00D749FF00D659FF00DB4
:101ED0009927729FB00DE11DF91F639FB00DE11DA1
:101EE000F91FBD01CF0111240895A1E21A2EAA1BEA
:101EF000BB1BFD010DC0AA1FBB1FEE1FFF1FA217BA
:101F0000B307E407F50720F0A21BB30BE40BF50BB6
:101F1000661F771F881F991F1A9469F7609570953F
:101F2000809590959B01AC01BD01CF010895EE0F06
:0E1F3000FF1F0590F491E02D0994F894FFCF67
:101F3E0052656164696E6720696E666F2066726FA6
:101F4E006D204448542E2E2E00436865636B7375C6
:101F5E006D206F6B004448542048756D6964697438
:101F6E00793A2000004448542054656D70657261C2
:101F7E00747572653A2000436865636B73756D20E6
:101F8E006572726F720054696D65206F757420658D
:101F9E0072726F7200556E6B6E6F776E2065727215
:101FAE006F720053686966742072656C6179207770
:101FBE00696E646F7700496E697469616C697A69DC
:101FCE006E67204175746F6D61746564204D6F642A
:101FDE00756C617220477265656E686F7573652EDC
:101FEE002E2E0046696E697368656420496E6974A9
:101FFE0069616C697A6174696F6E0A006E616E0058
:10200E00696E66006F7666002E0088130000FFFF73
:10201E00FFFF8813000000006C0A020B020A330A4D
:04202E00130A5C0A2B
:00000001FF
