:100000000C9463000C948B000C948B000C948B006C
:100010000C948B000C948B000C948B000C948B0034
:100020000C948B000C948B000C948B000C948B0024
:100030000C948B000C948B000C948B000C948B0014
:100040000C94E2060C948B000C94E3080C94310998
:100050000C948B000C948B000C948B000C948B00F4
:100060000C948B000C948B000000000024002700EF
:100070002A0000000000250028002B0000000000DE
:1000800023002600290004040404040404040202DA
:100090000202020203030303030301020408102007
:1000A0004080010204081020010204081020000012
:1000B0000007000201000003040600000000000029
:1000C0000000C7049D0A11241FBECFEFD8E0DEBF99
:1000D000CDBF12E0A0E0B1E0E8E0FFE102C0059092
:1000E0000D92A030B107D9F713E0A0E0B2E001C053
:1000F0001D92A631B107E1F710E0C6ECD0E004C0D4
:100100002297FE010E947E0FC23CD107C9F70E94D0
:10011000D3060C94820F0C9400000895FC01828198
:100120000895FC01628380810E943B080895FC01D0
:10013000862F6083718361E00E94FC0708952F92EF
:100140003F924F925F926F927F928F929F92AF9267
:10015000BF92CF92DF92EF92FF920F931F93DF93A4
:10016000CF9300D000D0CDB7DEB71C0149835A83AE
:100170006B837C834801590126013701CB01BA0109
:1001800020E030E040E050E00E94810D87FD8CC00F
:10019000C501B40120E030E040E050E00E94810D54
:1001A00087FD82C0C701B60120E030E040E050E0AA
:1001B0000E94810D87FD78C089819A81AB81BC81C5
:1001C000F10180839183A283B383D10114968D9230
:1001D0009D92AD92BC921797C086D186E286F38637
:1001E00064A575A586A597A50E941E0E20E030E0A7
:1001F0004AE754E40E94850D7B018C0189819A8134
:10020000AB81BC81F10184879587A687B787C5013B
:10021000B401A80197010E94D40E5B016C01D101C9
:1002200050966D937D938D939C935397C301B20128
:10023000A80197010E94850D7B018C01F101648B5F
:10024000758B868B978B808D918D019769F560E01A
:1002500070E080E090E029813A814B815C810E94CE
:100260001C0DD1011C966D937D938D939C931F97CC
:1002700060E070E080E090E0A60195010E941C0D16
:10028000F101608B718B828B938B60E070E080E07A
:1002900090E0A80197010E941C0DD10154966D9326
:1002A0007D938D939C9357970F900F900F900F9085
:1002B000CF91DF911F910F91FF90EF90DF90CF9042
:1002C000BF90AF909F908F907F906F905F904F9076
:1002D0003F902F9008954F925F926F927F928F92EE
:1002E0009F92AF92BF92CF92DF92EF92FF920F93C5
:1002F0001F93CF93DF93EC013A014B017801890101
:10030000CB01BA01A80197010E94D00E87FF4EC011
:1003100068AA79AA8AAA9BAAECAAFDAA0EAB1FAB6F
:1003200088AD882309F442C04C8C5D8CF201A0801A
:10033000B180C280D380C601B501A80197010E9497
:10034000D00E181634F4F201E082F1820283138396
:100350000DC0C601B501A40193010E94810D88233F
:100360002CF4F2016082718282829382ACA0BDA0E3
:10037000CEA0DFA0ECA8FDA80EA91FA9C601B5015B
:10038000A80197010E94D00E181664F0E8A8F9A8F9
:100390000AA91BA9C601B501A80197010E94810DF8
:1003A000882324F4ECA2FDA20EA31FA3DF91CF911A
:1003B0001F910F91FF90EF90DF90CF90BF90AF9083
:1003C0009F908F907F906F905F904F9008959F9235
:1003D000AF92BF92CF92DF92EF92FF920F931F9353
:1003E000CF93DF93EC0199246130710511F49924C6
:1003F000939488AD91E08927981681F5EC8DFD8D59
:10040000E080F18002811381ECA2FDA20EA31FA364
:10041000EA8DFB8D80819181A281B38188A799A704
:10042000AAA7BBA7ACA8BDA8CEA8DFA8C801B701E2
:10043000A60195010E94D00E181664F0A8A8B9A8CC
:10044000CAA8DBA8C801B701A60195010E94810DC9
:10045000882324F4ACA2BDA2CEA2DFA298AEDF9185
:10046000CF911F910F91FF90EF90DF90CF90BF90B1
:10047000AF909F9008952F923F924F925F926F920C
:100480007F928F929F92AF92BF92CF92DF92EF9224
:10049000FF920F931F93DF93CF9300D000D000D033
:1004A000CDB7DEB79E838D83DC01D8968C918823EF
:1004B00009F4E5C00E942A0769837A838B839C83B1
:1004C000ED81FE8180A191A1A2A1B3A129813A81F0
:1004D0004B815C81281B390B4A0B5B0B84A595A5CE
:1004E000A6A5B7A5281739074A075B0708F4C7C0B0
:1004F000028CF38DE02D2080318042805380AD81CD
:10050000BE815E96ED91FC915F97608171818281E1
:100510009381A20191010E941C0D3B014C01ED81D0
:10052000FE8120893189428953890E94D40EAD8190
:10053000BE8194962D913D914D915C9197970E942B
:100540001D0D7B018C01ED81FE8164A375A386A343
:1005500097A3A4A8B5A8C6A8D7A8A60195010E94EC
:10056000D00E181674F0ED81FE81A0A8B1A8C2A823
:10057000D3A8C801B701A60195010E94810D882367
:1005800044F4AD81BE819496AD92BD92CD92DC9241
:100590009797C401B301ED81FE8124853585468599
:1005A00057850E94D40EAD81BE8194962D913D91C8
:1005B0004D915C9197970E941D0D7B018C01C201AA
:1005C000B101ED81FE8120A531A542A553A50E9470
:1005D0001C0DAD81BE8154962D913D914D915C9144
:1005E00057970E94D40E9B01AC01C801B7010E942D
:1005F0001C0D7B018C01ED81FE81D4A8C5A8B6A895
:10060000A7A82D2D3C2D4B2D5A2D0E94D00E18162B
:10061000BCF0AD81BE81D096DC90D097D196CC90C5
:10062000D197D296BC90D297D396AC90C801B7011F
:100630002D2D3C2D4B2D5A2D0E94810D882334F4F5
:100640008D2D9C2DAB2DBA2D7C018D01AD81BE81F0
:100650005C96ED91FC915D97E082F18202831383B9
:10066000FD0120A631A642A653A689819A81AB81BD
:10067000BC8180A391A3A2A3B3A381E001C080E0C9
:1006800026960FB6F894DEBF0FBECDBFCF91DF9197
:100690001F910F91FF90EF90DF90CF90BF90AF90A0
:1006A0009F908F907F906F905F904F903F902F9092
:1006B00008954F925F926F927F928F929F92AF9226
:1006C000BF92CF92DF92EF92FF920F931F93DF932F
:1006D000CF93CDB7DEB74C0127013801EF88F88CF6
:1006E000FC01558F448F738F628F378F268F10AE2A
:1006F00040E050E060E070E000E010E02FE733E41D
:100700000E946B0184E690E0A0E0B0E0F40184A7D1
:1007100095A7A6A7B7A780AD882391F1808D918D6D
:10072000E816F90669F160E070E080E090E0248569
:100730003585468557850E941C0DF40164877587B1
:100740008687978760E070E080E090E020893189BB
:10075000428953890E941C0DF401608B718B828B3E
:10076000938B60E070E080E090E0248935894689D1
:1007700057890E941C0DF401648B758B868B978BB7
:10078000F401F18EE08EC401B301A201960185014E
:10079000CB88DC88ED88FE880E949F000E942A0793
:1007A000F40124A535A546A557A5621B730B840B40
:1007B000950B60A371A382A393A3CF91DF911F91A7
:1007C0000F91FF90EF90DF90CF90BF90AF909F90F0
:1007D0008F907F906F905F904F9008958F929F922F
:1007E000AF92BF92CF92DF92EF92FF920F931F933F
:1007F000CF93DF935C01D62EE42EFC011086118688
:10080000128613861486862F61E00E94FC078D2DC8
:1008100060E00E943B08FF2400E010E0C801B7013F
:100820000E945E078D2D61E00E943B0888E290E007
:100830000E94B7078D2D60E00E94FC07C0E9D1E05F
:1008400002C0219741F18D2D0E948F08892BC9F399
:10085000C0E9D1E002C02197F1F08D2D0E948F08F0
:100860000197C9F303C0219741F415C040E8C42E95
:10087000882438E2932EC0E9D1E08D2D0E948F08A4
:10088000892B89F30E9438077B018C01C0E9D1E0F4
:1008900005C0219719F42EEF3FEF2CC08D2D0E943B
:1008A0008F080197B1F30E9438076E197F09800BFA
:1008B000910B693271058105910530F0F501E80D64
:1008C000F11D80858C2980878C2D90E095958795EA
:1008D000C82E882319F4839480E8C82E9A9459F678
:1008E0008D2D61E00E94FC078D2D61E00E943B0888
:1008F00020E030E0C901DF91CF911F910F91FF906F
:10090000EF90DF90CF90BF90AF909F908F90089521
:10091000EF92FF920F931F93CF93DF93EC0142E18D
:100920000E94EE037C01009769F080E090ECA9E75B
:10093000B4EC88839983AA83BB838C839D83AE8325
:10094000BF831DC00885602F70E080E090E00E94AA
:100950001E0E688379838A839B831A85612F70E0DA
:1009600080E090E00E941E0E6C837D838E839F83C7
:10097000100F8C85811719F0EE24EA94FE2CC70124
:10098000DF91CF911F910F91FF90EF900895AF925B
:10099000BF92CF92DF92EF92FF920F931F9384E06A
:1009A00092E00E948D0087E092E00E948D008AE034
:1009B00092E00E948D0000D000D000D080E090E056
:1009C000A0E8BFE3EDB7FEB781839283A383B4832E
:1009D000168215828AE292E06EE172E042E252E013
:1009E0002AE132E00F2EF0E0EF2EF0E0FF2EF0E0F3
:1009F0000F2FF0E41F2FF02D0F2EF0E0AF2EF0E0C0
:100A0000BF2EF0EACF2EF0E4DF2EF02D0E94590326
:100A10008DB79EB706960FB6F8949EBF0FBE8DBFDA
:100A20001F910F91FF90EF90DF90CF90BF90AF900C
:100A30000895AF92BF92CF92DF92EF92FF920F9301
:100A40001F930E942A075B016C0180910002909124
:100A50000102A0910202B0910302A6019501281B98
:100A6000390B4A0B5B0B8091E6019091E701A09155
:100A7000E801B091E90182179307A407B50708F0D0
:100A8000C7C0A0920002B0920102C0920202D092AE
:100A9000030284E092E061E00E94910084EF92E022
:100AA00060E071E00E94090D8DE092E06CE00E9430
:100AB00088042FEF8F3F920709F470C0009729F048
:100AC0008E5F9F4F09F074C06EC084EF92E069E1C1
:100AD00071E00E94090D84EF92E065E271E00E94EE
:100AE0001F0C40910D0250910E0260910F02709107
:100AF000100284EF92E022E030E00E94060D609147
:100B00000D0270910E0280910F02909110020E94CE
:100B1000ED0D7093ED016093EC0184EF92E064E3DE
:100B200071E00E94090D84EF92E065E371E00E949C
:100B30001F0C4091110250911202609113027091AA
:100B4000140284EF92E022E030E00E94060D6091F2
:100B500011027091120280911302909114020E946E
:100B6000ED0D7093EB016093EA0184EF92E064E392
:100B700071E00E94090D6091EA017091EB018827F4
:100B800077FD8095982F0E94200E60931E0270932F
:100B90001F02809320029093210210C084EF92E004
:100BA00067E471E009C084EF92E066E571E004C09B
:100BB00084EF92E065E671E00E94090D84EF92E017
:100BC00064E371E00E94090D84EF92E063E771E055
:100BD0000E94090D84EF92E060E871E00E941F0C12
:100BE00087E092E00E948E00682F84EF92E070E030
:100BF0004AE050E00E940C0C84EF92E064E371E064
:100C00000E94090D84EF92E064E371E00E94090DF7
:100C100084E092E00E948E00882329F084E092E034
:100C200060E00E9491008AE292E00E943B02E09024
:100C30002602F0902702009128021091290280914B
:100C4000EE019091EF019C01442737FD4095542F10
:100C5000D601C5018E199F09A00BB10B28173907C2
:100C60004A075B0760F42E0D3F1D401F511F209364
:100C7000260230932702409328025093290210E065
:100C80008091260290912702A0912802B09129021A
:100C9000A81AB90ACA0ADB0AC601B5010E941E0ECB
:100CA0009B01AC0160912202709123028091240289
:100CB000909125020E94D00E18160CF411E087E0E6
:100CC00092E0612F0E9491001F910F91FF90EF9091
:100CD000DF90CF90BF90AF900895CF92DF92EF92C8
:100CE000FF920F931F9394EFC92E92E0D92EC60165
:100CF00040E855E260E070E00E946C09C60162E9DC
:100D000071E00E94090D84E092E06DE070E00E94C5
:100D1000970087E092E06BE070E00E9497008AE025
:100D200092E06AE070E00E9497000E942A076093B8
:100D3000260270932702809328029093290280E074
:100D400090E0A0EFB1E480931A0290931B02A0936D
:100D50001C02B0931D028AE2E82E82E0F82E609118
:100D6000EE017091EF01882777FD8095982F0E9402
:100D7000200E8B019C01C70140E050E060E070E074
:100D80000E946B01C70161E070E00E94E701C601AB
:100D90006FEB71E00E94090D1F910F91FF90EF9092
:100DA000DF90CF900895CF93DF930E94C1070E94F8
:100DB0006D06CEE1D9E00E9419052097E1F30E946B
:100DC0001E09F9CF1F920F920FB60F9211242F9385
:100DD0003F938F939F93AF93BF93809167029091BE
:100DE0006802A0916902B0916A0230916B0201968B
:100DF000A11DB11D232F2D5F2D3720F02D570196FA
:100E0000A11DB11D20936B0280936702909368022D
:100E1000A0936902B0936A02809163029091640288
:100E2000A0916502B09166020196A11DB11D80934B
:100E3000630290936402A0936502B0936602BF912F
:100E4000AF919F918F913F912F910F900FBE0F9077
:100E50001F9018958FB7F89420916702309168021F
:100E60004091690250916A028FBFB901CA01089589
:100E70009FB7F8942091630230916402409165021B
:100E80005091660286B5A89B06C08F3F21F02F5F68
:100E90003F4F4F4F5F4F9FBF542F432F322F22277B
:100EA000280F311D411D511D82E0220F331F441FA9
:100EB000551F8A95D1F7B901CA0108959B01AC016C
:100EC0007FB7F8948091630290916402A0916502CB
:100ED000B091660266B5A89B05C06F3F19F00196F8
:100EE000A11DB11D7FBFBA2FA92F982F8827860F6C
:100EF000911DA11DB11D62E0880F991FAA1FBB1F84
:100F00006A95D1F7BC012DC0FFB7F89480916302B8
:100F100090916402A0916502B0916602E6B5A89B2B
:100F200005C0EF3F19F00196A11DB11DFFBFBA2FFB
:100F3000A92F982F88278E0F911DA11DB11DE2E0CA
:100F4000880F991FAA1FBB1FEA95D1F7861B970B25
:100F5000885E9340C8F22150304040405040685174
:100F60007C4F211531054105510571F60895019712
:100F700039F0880F991F880F991F02970197F1F791
:100F80000895789484B5826084BD84B5816084BD01
:100F900085B5826085BD85B5816085BDEEE6F0E0F2
:100FA000808181608083E1E8F0E01082808182604E
:100FB0008083808181608083E0E8F0E080818160CF
:100FC0008083E1EBF0E0808184608083E0EBF0E0FF
:100FD000808181608083EAE7F0E0808184608083A3
:100FE000808182608083808181608083808180684D
:100FF00080831092C1000895CF93DF93482F50E073
:10100000CA0186569F4FFC0134914A575F4FFA013F
:101010008491882369F190E0880F991FFC01E859B9
:10102000FF4FA591B491FC01EE58FF4FC591D491AB
:10103000662351F42FB7F8948C91932F90958923C0
:101040008C93888189230BC0623061F42FB7F894A8
:101050008C91932F909589238C938881832B8883FF
:101060002FBF06C09FB7F8948C91832B8C939FBFA2
:10107000DF91CF910895482F50E0CA0182559F4FCC
:10108000FC012491CA0186569F4FFC0194914A5756
:101090005F4FFA013491332309F440C0222351F108
:1010A000233071F0243028F42130A1F0223011F5E2
:1010B00014C02630B1F02730C1F02430D9F404C078
:1010C000809180008F7703C0809180008F7D809316
:1010D000800010C084B58F7702C084B58F7D84BD39
:1010E00009C08091B0008F7703C08091B0008F7DE0
:1010F0008093B000E32FF0E0EE0FFF1FEE58FF4F9C
:10110000A591B4912FB7F894662321F48C91909512
:10111000892302C08C91892B8C932FBF0895682F4F
:1011200070E0CB0182559F4FFC012491CB01865684
:101130009F4FFC0144916A577F4FFB019491992383
:1011400019F420E030E03CC0222351F1233071F04B
:10115000243028F42130A1F0223011F514C02630BB
:10116000B1F02730C1F02430D9F404C08091800060
:101170008F7703C0809180008F7D8093800010C0A6
:1011800084B58F7702C084B58F7D84BD09C08091FE
:10119000B0008F7703C08091B0008F7D8093B00046
:1011A000892F90E0880F991F84589F4FFC01A591CB
:1011B000B4918C9120E030E0842311F021E030E004
:1011C000C901089508951F920F920FB60F9211242E
:1011D0002F933F934F938F939F93EF93FF93809120
:1011E000C00082FD1DC04091C6002091AC0230912C
:1011F000AD022F5F3F4F2F7330708091AE02909100
:10120000AF022817390771F0E091AC02F091AD02FE
:10121000E459FD4F40833093AD022093AC0202C0ED
:101220008091C600FF91EF919F918F914F913F91D7
:101230002F910F900FBE0F901F901895E091000313
:10124000F0910103E05CFF4F819191912081318108
:10125000821B930B8F739070892B11F00E94E20810
:1012600008951F920F920FB60F9211242F933F9360
:101270008F939F93EF93FF932091F0023091F102AF
:101280008091F2029091F3022817390731F480918E
:10129000C1008F7D8093C10014C0E091F202F091F3
:1012A000F302E055FD4F20818091F2029091F3020C
:1012B00001968F7390709093F3028093F2022093C3
:1012C000C600FF91EF919F918F913F912F910F90C9
:1012D0000FBE0F901F901895AF92BF92DF92EF92C2
:1012E000FF920F931F93CF93DF93EC017A018B0151
:1012F000DD24403081EE580780E0680780E0780701
:1013000011F0DD24D39491E0A92EB12CEC89FD8954
:10131000DD2069F0C50108A002C0880F991F0A945A
:10132000E2F7808360E079E08DE390E005C0108211
:1013300060E874E88EE190E0A80197010E945A0FDE
:10134000215030404040504056954795379527955D
:1013500080E12030380720F0DD2011F0DD24D6CFE9
:10136000E889F9893083EA89FB89208319A2EE890B
:10137000FF89408121E030E0C9010C8C02C0880F58
:10138000991F0A94E2F7482B4083EE89FF89408138
:10139000C9010D8C02C0880F991F0A94E2F7482BEF
:1013A0004083EE89FF894081C9010E8C02C0880FFD
:1013B000991F0A94E2F7482B4083EE89FF898081C8
:1013C0000F8C02C0220F331F0A94E2F720952823C6
:1013D0002083DF91CF911F910F91FF90EF90DF90CD
:1013E000BF90AF900895DC011C96ED91FC911D9784
:1013F000E05CFF4F2191319180819181281B390B55
:101400002F733070C9010895DC011C96ED91FC9199
:101410001D97E05CFF4F20813181E054F040DF01F7
:10142000AE5BBF4F8D919C9111972817390719F426
:101430002FEF3FEF07C08D919C91E80FF91F80813E
:10144000282F30E0C9010895DC011C96ED91FC9134
:101450001D97E05CFF4F20813181E054F040DF01B7
:10146000AE5BBF4F8D919C9111972817390719F4E6
:101470002FEF3FEF10C08D919C911197E80FF91F4E
:1014800020818D919C91119701968F739070119688
:101490009C938E9330E0C9010895DC0191968C9164
:1014A0009197882339F05496ED91FC91559780815E
:1014B00086FFF9CF91961C920895CF93DF93EC01AC
:1014C000EE85FF85E05CFF4F20813181E054F040E4
:1014D0002F5F3F4F2F733070DF01AE5BBF4F8D9199
:1014E0009C91119728173907D1F3E05CFF4F808159
:1014F0009181E054F040E80FF91F6083EE85FF858D
:10150000E05CFF4F31832083EE89FF89208181E0F9
:1015100090E00F8C02C0880F991F0A94E2F7282BE5
:10152000208381E089A3EC89FD89808180648083A8
:1015300081E090E0DF91CF9108951092F702109230
:10154000F60288EE93E0A0E0B0E08093F80290937A
:10155000F902A093FA02B093FB0284EF91E090931A
:10156000F5028093F4028CE692E09093010380935D
:10157000000380EB92E0909303038093020385ECD9
:1015800090E0909305038093040384EC90E09093A3
:1015900007038093060380EC90E090930903809307
:1015A000080381EC90E090930B0380930A0382EC94
:1015B00090E090930D0380930C0386EC90E0909361
:1015C0000F0380930E0384E08093100383E08093E5
:1015D000110387E08093120385E08093130381E079
:1015E000809314030895CF92DF92EF92FF920F93AE
:1015F0001F93CF93DF937C016B018A01C0E0D0E0A1
:101600000FC0D6016D916D01D701ED91FC91019054
:10161000F081E02DC7010995C80FD91F0150104076
:101620000115110571F7CE01DF91CF911F910F9137
:10163000FF90EF90DF90CF900895EF92FF920F937D
:101640001F938C01DC01ED91FC910190F081E02D64
:101650006DE009957C01D801ED91FC910190F0813C
:10166000E02DC8016AE009959C012E0D3F1DC901BE
:101670001F910F91FF90EF900895CF93DF93EC01AE
:101680006115710519F420E030E00FC0DB010D9009
:101690000020E9F71197A61BB70BE881F9810280BA
:1016A000F381E02DAD0109959C01C901DF91CF9136
:1016B00008954F925F927F928F929F92AF92BF92C6
:1016C000CF92DF92EF92FF920F931F93DF93CF930E
:1016D000CDB7DEB7A1970FB6F894DEBF0FBECDBF72
:1016E0002C01742ECB01223008F42AE019A231E239
:1016F000C32ED12CCC0EDD1E822E9924AA24BB240D
:10170000672D752FA50194010E945A0F79018A0156
:10171000C801B701A50194010E943B0F472D461B4C
:101720000894C108D1084A3014F4405D01C0495CF6
:10173000F6014083E114F1040105110521F07E2C2E
:101740005F2DC801DDCFC201B6010E943D0BA196FD
:101750000FB6F894DEBF0FBECDBFCF91DF911F91C2
:101760000F91FF90EF90DF90CF90BF90AF909F9040
:101770008F907F905F904F900895DC012115310587
:1017800041F4ED91FC910190F081E02D642F0995D9
:1017900008950E94590B0895CF92DF92EF92FF9225
:1017A0000F931F93CF93DF93EC016A017B01211507
:1017B000310541F4E881F9810190F081E02D642F39
:1017C00009951FC02A303105D1F477FF17C0E88191
:1017D000F9810190F081E02D6DE209958C0144279B
:1017E0005527BA014C195D096E097F09CE012AE01F
:1017F0000E94590B9801280F391F04C02AE00E944B
:10180000590B9C01C901DF91CF911F910F91FF905E
:10181000EF90DF90CF900895EF92FF920F931F9378
:101820007B019A010027F7FC0095102FB801A70152
:101830000E94CC0B1F910F91FF90EF9008950E9492
:101840003D0B08957F928F929F92AF92BF92CF925D
:10185000DF92EF92FF920F931F93CF93DF934C0190
:101860007A018B01722ECB01BA01A80197010E9467
:10187000370F882321F0C40168ED71E021C0C0E07A
:10188000D0E057016801E894D7F8C601B5012FEF01
:101890003FEF4FE75FE70E94370F882351F4C601FF
:1018A000B5012FEF3FEF4FE75FE70E94810D18165C
:1018B00014F0C1E0D0E0219739F0C4016CED71E083
:1018C0000E943D0BEC0193C0C801B7012FEF3FEF21
:1018D0004FE75FE40E94D00E181654F0C801B7011C
:1018E0002FEF3FEF4FE75FEC0E94810D882324F438
:1018F000C40160EE71E0E4CFC801B70120E030E040
:1019000040E050E00E94810D87FD03C0C0E0D0E0C0
:101910000EC0D401ED91FC910190F081E02DC40145
:101920006DE20995EC0117FB109517F9109520E071
:1019300030E040E05FE3DD240BC0CA01B90120E0E4
:1019400030E040E251E40E94850D9B01AC01D3944C
:10195000D71498F3C801B7010E941D0D5B016C01FB
:101960000E94F20D7B018C01C401B801A7012AE09D
:1019700030E00E94BD0BC80FD91F772039F0C40199
:1019800064EE71E00E943D0BC80FD91FC801B7017A
:101990000E941E0E9B01AC01C601B5010E941C0DE8
:1019A00024C020E030E040E251E40E94D40E7B01EC
:1019B0008C010E94ED0D5B016C01CC24B7FCC0943E
:1019C000DC2CC401B601A5012AE030E00E94CC0B5A
:1019D000C80FD91FC601B5010E94200E9B01AC01A2
:1019E000C801B7010E941C0D7A947720D1F6CE0170
:1019F000DF91CF911F910F91FF90EF90DF90CF90EB
:101A0000BF90AF909F908F907F9008950E94220C7E
:101A10000895EF92FF920F931F937C010E943D0B5C
:101A20008C01C7010E941D0B080F191FC8011F91CF
:101A30000F91FF90EF9008955058BB27AA270ED022
:101A400075C166D130F06BD120F031F49F3F11F4B5
:101A50001EF45BC10EF4E095E7FB51C1E92F77D18D
:101A600080F3BA17620773078407950718F071F4BB
:101A70009EF58FC10EF4E0950B2EBA2FA02D0B0111
:101A8000B90190010C01CA01A0011124FF27591BC3
:101A900099F0593F50F4503E68F11A16F040A22FC9
:101AA000232F342F4427585FF3CF4695379527953A
:101AB000A795F0405395C9F77EF41F16BA0B620B39
:101AC000730B840BBAF09150A1F0FF0FBB1F661F80
:101AD000771F881FC2F70EC0BA0F621F731F841FC3
:101AE00048F4879577956795B795F7959E3F08F0E9
:101AF000B3CF9395880F08F09927EE0F97958795A8
:101B00000895D9D008F481E008950CD00FC107D111
:101B100040F0FED030F021F45F3F19F0F0C05111D9
:101B200039C1F3C014D198F39923C9F35523B1F304
:101B3000951B550BBB27AA2762177307840738F03C
:101B40009F5F5F4F220F331F441FAA1FA9F333D09B
:101B50000E2E3AF0E0E830D091505040E695001C4F
:101B6000CAF729D0FE2F27D0660F771F881FBB1F0B
:101B7000261737074807AB07B0E809F0BB0B802DE5
:101B8000BF01FF2793585F4F2AF09E3F510568F031
:101B9000B6C000C15F3FECF3983EDCF386957795C5
:101BA0006795B795F7959F5FC9F7880F911D969533
:101BB000879597F90895E1E0660F771F881FBB1F8F
:101BC000621773078407BA0720F0621B730B840B3C
:101BD000BA0BEE1F88F7E095089504D06894B11110
:101BE000D9C00895BCD088F09F5790F0B92F99279D
:101BF000B751A0F0D1F0660F771F881F991F1AF018
:101C0000BA95C9F712C0B13081F0C3D0B1E00895E0
:101C1000C0C0672F782F8827B85F39F0B93FCCF361
:101C2000869577956795B395D9F73EF4909580950D
:101C3000709561957F4F8F4F9F4F0895E89409C02D
:101C400097FB3EF490958095709561957F4F8F4FEF
:101C50009F4F9923A9F0F92F96E9BB279395F69505
:101C6000879577956795B795F111F8CFFAF4BB0F83
:101C700011F460FF1BC06F5F7F4F8F4F9F4F16C0E7
:101C8000882311F096E911C0772321F09EE8872F71
:101C9000762F05C0662371F096E8862F70E060E02D
:101CA0002AF09A95660F771F881FDAF7880F9695A6
:101CB000879597F90895990F0008550FAA0BE0E84A
:101CC000FEEF16161706E807F907C0F012161306FE
:101CD000E407F50798F0621B730B840B950B39F43E
:101CE0000A2661F0232B242B252B21F408950A26A4
:101CF00009F4A140A6958FEF811D811D089597F9E4
:101D00009F6780E870E060E008959FEF80EC0895A1
:101D100000240A94161617061806090608950024CA
:101D20000A9412161306140605060895092E039444
:101D3000000C11F4882352F0BB0F40F4BF2B11F4B8
:101D400060FF04C06F5F7F4F8F4F9F4F089557FD17
:101D50009058440F551F59F05F3F71F04795880F19
:101D600097FB991F61F09F3F79F0879508951216B0
:101D700013061406551FF2CF4695F1DF08C016165C
:101D800017061806991FF1CF86957105610508940D
:101D90000895E894BB2766277727CB0197F9089524
:101DA0008ADF08F48FEF08950BD0C0CFB1DF28F0A1
:101DB000B6DF18F0952309F0A2CFA7CF1124EACF00
:101DC000C6DFA0F3959FD1F3950F50E0551F629F9A
:101DD000F001729FBB27F00DB11D639FAA27F00D84
:101DE000B11DAA1F649F6627B00DA11D661F829FAB
:101DF0002227B00DA11D621F739FB00DA11D621F90
:101E0000839FA00D611D221F749F3327A00D611DAC
:101E1000231F849F600D211D822F762F6A2F11248E
:101E20009F5750408AF0E1F088234AF0EE0FFF1FE1
:101E3000BB1F661F771F881F91505040A9F79E3F18
:101E4000510570F05CCFA6CF5F3FECF3983EDCF31A
:101E5000869577956795B795F795E7959F5FC1F755
:101E6000FE2B880F911D9695879597F9089523DF8E
:101E7000880B990B0895629FD001739FF001829F98
:101E8000E00DF11D649FE00DF11D929FF00D839F09
:101E9000F00D749FF00D659FF00D9927729FB00DA6
:101EA000E11DF91F639FB00DE11DF91FBD01CF01B9
:101EB00011240895A1E21A2EAA1BBB1BFD010DC01F
:101EC000AA1FBB1FEE1FFF1FA217B307E407F507EA
:101ED00020F0A21BB30BE40BF50B661F771F881FC6
:101EE000991F1A9469F760957095809590959B015C
:101EF000AC01BD01CF010895EE0FFF1F0590F491D5
:081F0000E02D0994F894FFCFD5
:101F080052656164696E6720696E666F2066726FDC
:101F18006D204448542E2E2E00436865636B7375FC
:101F28006D206F6B004448542048756D696469746E
:101F3800793A2000004448542054656D70657261F8
:101F4800747572653A2000436865636B73756D201C
:101F58006572726F720054696D65206F75742065C3
:101F680072726F7200556E6B6E6F776E206572724B
:101F78006F720046616E2053746174732E2E2E00AA
:101F880046616E20706F7765722073746174653A6C
:101F98002000496E697469616C697A696E672041CD
:101FA80075746F6D61746564204D6F64756C6172D2
:101FB80020477265656E686F7573652E2E2E004614
:101FC800696E697368656420496E697469616C69D2
:101FD8007A6174696F6E0A006E616E00696E6600E0
:101FE8006F7666002E0088130000FFFFFFFF88133E
:101FF800000000005D0AF30AF309240A040A4D0AE6
:00000001FF
