:020000021000EC
:10F000000040002035FF010015FF010015FF010041
:10F0100000000000000000000000000000000000F0
:10F0200000000000000000000000000015FF0100CB
:10F03000000000000000000015FF010015FF0100A6
:10F0400015FF010015FF010015FF010015FF01006C
:10F0500015FF01000000000015FF010015FF010071
:10F0600015FF010015FF010015FF010015FF01004C
:10F0700015FF010015FF010015FF010015FF01003C
:10F0800015FF010015FF010015FF010015FF01002C
:10F0900015FF010015FF010015FF010015FF01001C
:10F0A00015FF010015FF0100000000000000000036
:10F0B0000000000000000000000000000000000050
:10F0C00010B5064C2378002B07D1054B002B02D03E
:10F0D000044800E000BF0123237010BDF020002091
:10F0E00000000000F820020008B5084B002B03D0F8
:10F0F0000748084900E000BF07480368002B03D019
:10F10000064B002B00D0984708BDC0460000000009
:10F11000F8200200F4200020F82002000000000087
:10F12000704708B50160081C012100F047FC08BDCC
:10F130000079704708B50171006800F079FC08BDDE
:10F14000F0B5002685B00C1C067446748674C6742F
:10F150000675051C081C0121171C00F02FFC311C32
:10F16000201C00F065FC381C00F00AFC0121201C6A
:10F1700000F05EFC282000F011FC311C201C00F087
:10F180001DFCC8267600201C00F06EFC002806D16D
:10F19000013EB6B2002EF6D1022040424CE0C82615
:10F1A0007600201C00F060FC012804D1013EB6B2BC
:10F1B000002EF6D1F0E72822002301920293802648
:10F1C000C8277F00201C00F04FFC002804D1013F1D
:10F1D000BFB2002FF6D1DFE700F0CEFBC8270390C7
:10F1E0007F00201C00F040FC012804D1013FBFB289
:10F1F000002FF6D1D0E700F0BFFB039A801A282831
:10F2000004D9029AAB181A7C32431A74760804D1D6
:10F21000029B80260133DBB20293019B013BDBB2F0
:10F220000193002BCCD1201C012100F0C7FB201C36
:10F23000012100F0FDFB019805B0F0BD00000000C9
:10F2400070B51222041CFFF77BFF002806D00F4B7D
:10F250000D4A22606360A260E36012E0257C281CF6
:10F2600002F068FDA67C20606160301C02F062FD47
:10F270007519A060E160207DEDB2401B451EA841DC
:10F28000404270BDC046C0460000000000388FC03C
:10F2900010B50D4C9621201C890100F091FD201C19
:10F2A0000A4900F02DFC0A480D21FFF73AFF0948F2
:10F2B0000B21FFF736FF08480A21FFF732FF201C19
:10F2C000064900F01DFC10BD44210020421E020032
:10F2D0001021002020210020182100206F1E020094
:10F2E000F7B500F045FB624B1A68811A614A126853
:10F2F000914200D89EE0186001215F48FFF71AFF95
:10F300005E4C5F49201C00F0FBFB5E4E0121301C6F
:10F31000FFF796FF5C4D431C32D0002804D002302A
:10F3200031D1201C594930E05949201C00F0E8FB3C
:10F3300002275849201C00F0CEFB00973268736802
:10F34000201C00F0E9FC3068716802F081FC524B2F
:10F35000291C1860201C00F0D3FB5049201C00F031
:10F36000BAFB0097B268F368201C00F0D5FCB068C7
:10F37000F16802F06DFC4A4B291C1860201C04E067
:10F38000201C484901E04849201C00F0B9FB291C19
:10F39000201C00F0B5FB4549201C00F0B1FB44499E
:10F3A000201C00F098FB434E301CFFF7C1FE0A22E0
:10F3B000011C201C00F0F3FB201C291C00F0A0FB0A
:10F3C000374A3D4F13685A1C12D03A689A420FD000
:10F3D00004DA301CFFF7ACFE002835D0304A136841
:10F3E0003A689A4204DD301CFFF7A2FE002834D1AF
:10F3F000291C201C00F084FB3049201C00F080FBFD
:10F400002F49201C00F067FB386802F055FC0B1CEC
:10F410000221021C0091201C00F07EFC291C201CF3
:10F4200000F06EFB291C201C00F06AFB201C291C2C
:10F4300000F066FB1048FFF77BFE002816D00E4850
:10F440000021FFF777FE11E0201C1E4900F058FB59
:10F45000301C0121FFF76EFEC0E7201C1A4900F0A6
:10F460004FFB301C0021FFF765FEC1E7F7BDC0462A
:10F470000C2100200C20002010210020442100201D
:10F48000881E020028210020871E0200DD1E0200C7
:10F49000A11E0200AD1E020008200020BC1E0200BA
:10F4A00000200020CE1E0200EC1E0200FA1E020008
:10F4B000071F02002021002004200020191F020045
:10F4C0002C1F0200411F0200581F020008B500F067
:10F4D00039F8FFF7DDFEFFF703FFFCE708B5054845
:10F4E000FFF71EFE0448FFF71BFE0448FFF718FE57
:10F4F00008BDC04610210020202100201821002036
:10F5000008B5024800F09CFC08BDC046442100201C
:10F5100038B50A4CA12301250022DB006560A560F7
:10F52000E2500223D1229A40A350C1229A40A35014
:10F530001120034900F0ACF9256038BD00100140EE
:10F54000A9F8010008B5FFF7E3FF08BD044B054A21
:10F55000D050054B1A78012A01D102221A70704747
:10F560001C0500000020004040210020014B00222B
:10F57000DA607047FC200040014B00221A6270479D
:10F58000FC20004008499022D2008858012330B561
:10F59000184001D08B5004E08D580424254201D03E
:10F5A0008C50181C30BDC0460020004038B5074DB7
:10F5B000281C00F0B8FB064C201C00F0B4FB291CF2
:10F5C000221C044800F0EEFB38BDC046602100203C
:10F5D000A82100204421002008B5011C014800F0AA
:10F5E0000DFC08BD44210020F8B5041C59480678DC
:10F5F000002E00D0ACE0E02040001718A0255648AF
:10F60000ED05BF007851E02040000F18BF007E518B
:10F61000524D534EAA51534AA95096221202944277
:10F620005DD029DC96229201944252D00EDC9622C3
:10F630001201944248D096225201944247D0962219
:10F64000D200944256D19E23DB0253E09622D2018F
:10F65000944240D006DCE122920194424AD1EC234C
:10F660009B0347E0E122D201944236D03E4A9442C5
:10F6700040D180231B043DE0E1229202944234D029
:10F680000DDC9622520294422BD0E1225202944287
:10F6900029D0E122120294422CD1344B2AE0E122FB
:10F6A000D202944223D005DC314A944222D18023F5
:10F6B000DB041FE0E122120394421AD02D4A944247
:10F6C00018D180235B0515E09D231B0312E02A4B14
:10F6D00010E02A4B0EE02A4B0CE02A4B0AE02A4BA2
:10F6E00008E02A4B06E02A4B04E02A4B02E02A4BB2
:10F6F00000E02A4B2A4A8421AB50A0230422DB00DD
:10F70000EA50284B0022DA601A62C1239B00EA58B3
:10F7100001260A43EA500F4B022023491E7000F0D5
:10F72000B7F8224BAE601B782E60002B10D1204B17
:10F730001B68002B0CD096239B019C4208DD1D4CBE
:10F740002078002803D00134FFF746FFF8E7FEE7F2
:10F75000F8BDC04640210020010300000020004009
:10F760000C05000014050000127A000000F0EB0008
:10F7700090D0030040420F0000B01300005027005B
:10F7800000A04E0000F0750000509D0000903A016E
:10F7900000E0D70100B0AF0300705F07A4DFBE0E2A
:10F7A00024050000FC20004001F50100412100205B
:10F7B000F8210020701F020023DF704728DF704708
:10F7C00043DF704770B58901002815DAC0B20F23F6
:10F7D0000340083B124A9B089B009B1803221040E1
:10F7E000FF24C200DD69201C904085430C409440FA
:10F7F0002A1C2243DA6112E082080A4B0324920099
:10F80000D2182040C023A0409B00FF24D558261CBE
:10F810008640B5430C408440281C2043D05070BD26
:10F8200000ED00E000E100E008B5074B1A68012395
:10F830008340181C002A02D0FFF7C2FF03E0A12278
:10F840000249D2008B5008BDF821002000F0014091
:10F850000D4B10B51B68041C002B08D044B2201CB3
:10F860000121FFF7ABFF201CFFF7A6FF0AE040B223
:10F870000121FFF7A7FF1F231C400123A3401C1CED
:10F88000024B1C6010BDC046F821002000E100E0E2
:10F8900008B5034B82001B68D150FFF7D9FF08BDA4
:10F8A0002C2000200000000030B50F4DAB68002B6D
:10F8B00010D00E4C0B4B0A4A2068616812184B415D
:10F8C0002260636020686168CBB2021C22606360C2
:10F8D0000023AB6000236B6430BDC046C046C04609
:10F8E0000000000100000000FC1001400022002088
:10F8F0000B4B0C4A186859680B4B10B5D4580023B1
:10F90000221C80185941054B034A00F01DFC4B0492
:10F91000C00B1843C90B10BDE80300000000000035
:10F92000002200200010014004050000C046C0462F
:10F930000B4B0C4A186859680B4B10B5D458002370
:10F94000221C80185941054B034A00F0FDFB4B0473
:10F95000C00B1843C90B10BD40420F00000000004F
:10F96000002200200010014004050000C046C046EF
:10F9700008B5FFF7BDFF08BD08B5FFF7D9FF08BD03
:10F9800038B5041CFFF7F4FF051CFFF7F1FF401B1F
:10F99000A04202D200F07EFAF7E738BD01380BD35F
:10F9A000C046C046C046C046C046C046C046C04627
:10F9B000C046C046C046F1E77047000000B5021ED1
:10F9C000062A27D80C2925D8C132A023FF32081CCB
:10F9D000DB05920000F020FB07140B07090D0F1246
:10F9E0001416181A1C00002113E0042111E00C2148
:10F9F0000FE001210DE00221FF310AE0064908E095
:10FA0000064906E0064904E0064902E0064900E02E
:10FA10000649995000BDC0460102000001030000E4
:10FA200001040000010500000106000001070000BC
:10FA300070B50B4D041C2B5C0E1C002B03D000F08A
:10FA40002BFA00232B550122A023A240DB05141C16
:10FA5000002E02D0A121C90000E002495C5070BD17
:10FA6000F02100200C05000038B5094D041C2B5C6A
:10FA7000002B03D000F010FA00232B55A223A02264
:10FA8000DB00D205D0580123E040184038BDC04605
:10FA9000F0210020F8B5061C0C1C8F180025BC4274
:10FAA00007D0336821781B68301C984701342D1823
:10FAB000F5E7281CF8BD70B5051C0C1E09D00368BD
:10FAC000081C5E6802F0B6F9211C021C281CB04715
:10FAD00000E0081C70BD08B5FFF7EDFF08BD08B5D4
:10FAE00003681B68984708BD38B50D21041CFFF753
:10FAF000F6FF0A21051C201CFFF7F1FF401938BD55
:10FB000038B5041CFFF7D7FF051C201CFFF7ECFFDE
:10FB1000281838BDF0B58BB0151C09AB0022071CA6
:10FB20000E1C1A70012D00D80A256C462334301C97
:10FB3000291C00F07BFA031C6B43F61AF6B2211C59
:10FB4000092E01D8303600E03736F6B22670013C77
:10FB5000002801D0061CEAE7381CFFF7ACFF0BB009
:10FB6000F0BDF8B5041C0D1C161E04D10368C9B203
:10FB70001B68984712E00A2A0DD100290ADA2D21C4
:10FB8000FFF7ADFF6942071C321C201CFFF7C2FFC4
:10FB9000C01903E000E0D2B2FFF7BCFFF8BD08B522
:10FBA000FFF7DFFF08BD0000F7B51C1C08AB1B7892
:10FBB000071C211C101C151C009300F0FDF90028E7
:10FBC00002D1381C504907E0281C211C00F0F4F930
:10FBD000012804D14D49381CFFF76DFF7CE0281C3B
:10FBE000211C404B3E4A00F09BFA002802D0381CF2
:10FBF0004749F1E7281C211C3B4A3C4B00F07CFAAA
:10FC00000028F4D1281C211C394A3A4B00F074FA20
:10FC1000002808D02D21381CFFF761FF802109063C
:10FC20000190641800E001900026334A334B00999C
:10FC30008E420AD0101C191C314A324B00F0E4FDF0
:10FC40000136021C0B1CF6B2F1E7281C211C00F047
:10FC5000BFFA0D1C041C00F09BFA061C02F06AF8A7
:10FC60000B1C021C291C201C01F0C8FC0A22041CCD
:10FC70000D1C381C311CFFF74DFF019B0099C61865
:10FC8000002904D0381C2349FFF715FF3618009BC4
:10FC9000002B20D01A4A1B4B201C291C01F01EFAF5
:10FCA0000D1C041C01F0D4FF01900A220199381C9C
:10FCB000FFF757FF3618019801F0FEFF0B1C021CDE
:10FCC000291C201C01F09AFC009B041C013BDBB2A8
:10FCD0000D1C0093DBE7301CFEBDC046C046C0468D
:10FCE000000000E0FFFFEF41000000E0FFFFEFC178
:10FCF0000000000000000000000000000000E03FE5
:10FD0000000000000000244015200200192002001D
:10FD10001D2002009F1E020013B5049CE1B2009159
:10FD2000FFF742FF16BD10B500214022041C02F06F
:10FD300079F800232364201C636410BD036C3F2208
:10FD400001331340426C934202D0026C815403642D
:10FD50007047012070470369186C5B6C4030C01A13
:10FD60003F23184070470369196C5A6C914202D0C6
:10FD70005A6C985C01E00120404270470369196C9D
:10FD80005A6C914207D05A6C3F21985C5A6C0132F0
:10FD90000A405A6401E0012040427047037E002B74
:10FDA000FCD1704700234360FA239B008360034B20
:10FDB00001610833036042617047C0462820020099
:10FDC00008B5002303760122081C191CFFF70CFC60
:10FDD00008BD08B54369196C5A6C914202D10023E1
:10FDE00003760AE0012202765A6C3F21985C5A6C35
:10FDF00001320A405A64FFF7A9FB08BD38B50E4B23
:10FE0000041C1B78002B15D04069036C0B4D01338B
:10FE1000426C2B4004D54025013B6D422B430133FE
:10FE20009342F2D0FFF78AFF237E002B02D1201CE1
:10FE3000FFF7CFFF012038BD402100203F000080A8
:10FE400038B5114B041C1A6A1D1C002A04D0FFF798
:10FE500093FB201CFFF7BDFFEB68002B12D0FFF7D0
:10FE600085FBA323094ADB00D558FFF78BFB00284D
:10FE700008D12069E9B2FFF761FF054B002B01D0E3
:10FE800000E000BF38BDC046FC200040002000401C
:10FE9000000000007047000070B5184E4500041CBB
:10FEA000A85DFF2803D0FFF7BFFCFF23AB557519F2
:10FEB0006878FF2803D0FFF7B7FCFF236B70104B67
:10FEC0001A5DFF2A07D04532FF320E480E499200D4
:10FED0005050FF221A5500230C4A9A181178A1425B
:10FEE00001D1FF2111700A4A9A181178A14201D15B
:10FEF000FF2111700133032BEED170BD13200020C0
:10FF000024200020001F030000600040212000206A
:10FF10001020002008B5044B5A68044BD205520D3E
:10FF2000D358984708BDC04600ED00E030200020BF
:10FF3000FEE700001048114910B5884201D00023A7
:10FF400001E00F4B07E00F4CCA18A242F9D2C45887
:10FF500004331460F7E70C4A191D043B934203D2A3
:10FF600000221A600B1CF6E701F036FF00F00EF8D5
:10FF7000FFF7ACFAFEE7C046F820020000200020A0
:10FF8000F4200020F020002008220020064B1B68EF
:10FF90001B061B0F012B06D1044A054B1A60802259
:10FFA000044B12021A607047E80F00F0DFFF07C031
:10FFB00004050040186C00400B1C011C021C30B5ED
:10FFC00019430220002900D130BD802109068B424F
:10FFD00016D00D4904205C180C498C42F4D90C4D04
:10FFE0005C198C42F0D90B4C590049080320A142FE
:10FFF000EAD9074C0020A142E6D150425041E3E744
:020000022000DC
:10000000002AE1D0EFE7C0460000F0FFFFFFDF7FEE
:100010000000F07FFFFF0F0002B47146490849005D
:10002000095C49008E4402BC7047C046002934D0A8
:100030000123002210B488422CD301242407A142BA
:1000400004D2814202D209011B01F8E7E400A14277
:1000500004D2814202D249005B00F8E7884201D312
:10006000401A1A434C08A04202D3001B5C082243EA
:100070008C08A04202D3001B9C082243CC08A0425B
:1000800002D3001BDC082243002803D01B0901D047
:100090000909E3E7101C10BC7047002801D00020BC
:1000A000C04307B4024802A14018029003BDC046F5
:1000B000190000000029F0D003B5FFF7B9FF0EBC0E
:1000C0004243891A1847C0467047C0468446101CF0
:1000D00062468C46191C634600E0C0461FB500F01E
:1000E0007FFF002801D40021C8421FBD10B500F0D9
:1000F000AFFE4042013010BD10B500F071FF002886
:1001000001DB002010BD012010BDC04610B500F07D
:1001100067FF002801DD002010BD012010BDC04692
:1001200010B500F0DFFE002801DC002010BD01202A
:1001300010BDC04610B500F0D5FE002801DA002041
:1001400010BD012010BDC0469C460304F0B51B0C39
:1001500017043F0C150C1E1C041C000C7E436B4343
:1001600047434543FB18300C1818874202D98023B7
:100170005B02ED18030CED1863465C434A433604FA
:10018000360CA118000480194919F0BD00000000C8
:1001900038B50E4B0C4A041C0D1CFFF7CBFF002892
:1001A00004D1201C291C01F053FD38BD074B064A21
:1001B000201C291C01F022FA01F04AFD80231B06B5
:1001C000C018F2E7C046C046000000000000E04151
:1001D000F8B55F46564644464D46F0B40C034D0014
:1001E000CE0F610A440F2143C40018038046580013
:1001F000400D8246D80F84464046400A530F0343C1
:10020000D0006D0D371C83465246664500D19DE0F7
:10021000AF1A002F00DC03E1002A38D1184300D0C8
:10022000E4E0630709D00F232340042B05D0231DEE
:10023000A342A441644209191C1C080200D478E0BE
:10024000CE4B6A1C9A4200D105E1CD4BE40819401F
:1002500048075205490204430B0B520D371C00207E
:1002600000211B03201C1C0B0B0D1B05C54D23433C
:10027000520552081D4015436D006D08FF07291CEB
:1002800039433CBC90469946A246AB46F8BDBB48B4
:100290008542C6D0802000040343382F00DDECE007
:1002A0001F2F00DD20E12020C01B1A1C8146824048
:1002B0005846F8400243944658464A469040421EEB
:1002C0009041FB40624602431F1CA21A9442A44183
:1002D0006442C91B091B141C0B02A2D549024F0A18
:1002E000002F00D1C4E0381C01F058FD021C083A70
:1002F0001F2A00DDB7E02821091A201C9740C840BA
:1003000007439440954200DDA9E0551B691C1F2955
:1003100000DDD8E01F22551B3B1C221CAB40CA400D
:10032000AC40651EAC411343CF401C43391C002533
:1003300077E74807E4086A05C908520D371C0443EB
:100340008E4B9D4248D009030B0B88E7AA1A9446AE
:10035000002A00DC98E05046002853D087488542A8
:1003600000D15EE78020000403436246382A00DDA6
:10037000FDE01F2A00DD4BE120226046101A1A1C06
:1003800082408246914658466246D0404A460243E1
:100390009046584652469040421E90414246024383
:1003A0006046C3401219A242A44164425918091977
:1003B000141C080200D434E7704B01359D4200D173
:1003C00024E16F4B60081940012323401C1C0443A7
:1003D000CB071C43490824E70B1C234300D1C7E18A
:1003E00080231B030B431B031B0B38E7013F002F2C
:1003F00064D15846221A9442A4416442C91A091B86
:10040000141C69E75846184300D10AE701225242FA
:1004100094446046002800D0C5E058460219C2E75F
:10042000002F72D1681C4005400D012800DCDEE081
:100430005A46A21A9442BF41C81A7F42C71B3802CB
:1004400000D488E05A46141BA3459241591A5242DF
:100450008F1A664644E7371C00230024FFE648490C
:10046000AD1A3940DDE6271C28388740002449E7CB
:10047000201C01F093FC203038E75A461A43531EE3
:100480009A41D2B2002720E7002A00D0DDE0681CA4
:100490004205520D012A00DC8EE0384DA84200D101
:1004A000B3E05D462A19A242A441644259180919D1
:1004B000CC07520814434908051CB2E62F48854270
:1004C00000D0EAE6ADE62B1C1F3B3A1CDA40131CB9
:1004D00020296DD03F22551BAF403C43601E844114
:1004E0001C43002100259CE6381C20381A1CC24001
:1004F000101C202F5ED04022D71BBB405A461A4307
:10050000531E9A4102430027DFE6002D3CD01B4DCD
:10051000AA4500D194E080252D047F422943382F3D
:1005200000DDADE01F2F00DD2CE12025ED1B081CB8
:10053000261CA840FE40AC400643651EAC41344337
:10054000F9405D462C1BA34592415B1A5242991A11
:1005500055466646C0E6131C3B43141C002B00D0D6
:10056000BEE600270022002500210024E8E65A46C6
:100570001A43531E9A41D2B2002313E7FF0700002B
:10058000FFFF7FFFFFFF0F800D1C254358D0FF4367
:10059000002F51D1041BA3459241591A5242891A86
:1005A0005546664698E69648854200D0DDE638E630
:1005B000002792E70023A1E7081C2043002D00D06C
:1005C000C0E0002800D1FBE05846184300D128E6DF
:1005D00058460219A242A441644259180919141C30
:1005E0000A0200D41DE6874B0125194019E6081CB4
:1005F0002043002D39D100286DD15946194300D12F
:10060000BDE0191C5C4666460BE6051C2A1CABE7E0
:10061000604620381A1CC24060469146202800D10E
:10062000ABE04022121A93405A461A43531E9A4195
:100630004B461A430023B5E6714DAA4500D06EE73C
:10064000191C5C4655466646EBE5002D1ED10D1C77
:10065000254373D0D543002D6DD15C445C45924158
:100660005918524289185546A3E6002849D15946DF
:10067000194300D196E0191C5C466646604DD0E5F2
:100680000C43611E8C41E4B200215AE75C4DAA453F
:1006900054D05542802210040143382D00DD85E0FE
:1006A0001F2D00DD95E02022501B0A1C844682404D
:1006B000201CE8400243904662469440601E8441FC
:1006C00042461443E9405C445C459241CB18524297
:1006D000991855466DE65846184300D1A1E558468D
:1006E000271ABC429241C81A5242801A02026AD5A5
:1006F0005846041BA3459241591A5242891A66462C
:100700008FE55846184336D04807E4080443802054
:10071000C9080003014208D0DD08054205D1594649
:10072000CA085C071443291C6646630FC9001943B5
:10073000E400334D75E5324A9245AED1191C5C4652
:1007400055466EE5002837D05846184313D080250B
:100750004807E408C9082D0304432942E5D0D80816
:100760002842E2D15D46EA085C071443011CDCE73D
:100770000023002473E5224D53E5002354E70027AE
:100780000022F1E63D1C203D0A1CEA40151C202FEA
:1007900031D04026F71BB9400C43611E8C412C43DD
:1007A0000021CEE6164A0027151CDDE60C43611E2B
:1007B0008C41E4B2002186E7191C5C46104D30E5FF
:1007C000191C5C462DE5031C3B43D8D0011C3C1C86
:1007D00027E52020404240190A1CC2409046202DA7
:1007E0000BD04020451BA9400C43611E8C4145465F
:1007F0002C43002167E70021CEE70021F4E7C04643
:10080000FF070000FFFF7FFFF0B5564644465F46F6
:100810004D46F0B41F1C0B031B0B98464B0087B0D2
:10082000041C81465B0DC80F161C9A460090002BD5
:1008300051D06A4B9A4531D08022414652030A4337
:10084000630FD2001A43664B90460025E2009146A2
:100850009A44002402953B031B0B9B46FD0F7B0033
:10086000311C5B0D019560D05C4A934254D08021CD
:10087000584649030143720FC9001143584A8B4639
:100880009B18F1000020009A04436A4003920F2C49
:1008900000D9ADE0534EA4003459A7464046044366
:1008A0006ED1002102250824884689460295D2E7A8
:1008B000009C0298C34649460194022864D003284C
:1008C00000D1ABE2012800D038E2019A00240240B6
:1008D0000025A14660E0434623434AD04046002815
:1008E00000D1C0E101F05AFA031E272B00DDB3E16D
:1008F00028210D1A211C083B4246E9409A400D1C54
:100900001543221C9A40A8469146374B00251B1AD6
:100910009A46002402959EE75A4616430320002E6D
:10092000B1D1B34600210220ADE75A4632431BD075
:100930005B46002B00D18AE1584601F02FFA2728A8
:1009400000DD7DE12822171A011C321C08395B46A4
:10095000FA408B40171C1F43331C8B40BB46191CAD
:10096000214B1B1A00208EE70027BB4600210120E7
:1009700089E70020012504248046814602956AE724
:1009800003250C24029566E7019C0394039D012234
:100990002A400024114DA146002000212403260BEB
:1009A0000C0D2405114B34432D0523402B435B00D4
:1009B0005B08D207191C4846114307B03CBC90465F
:1009C0009946A246AB46F0BD0022802424039146FE
:1009D000024DE1E700240025A146DDE7FF07000006
:1009E00001FCFFFF502002000DFCFFFFFFFF0F8006
:1009F0005546ED1A0495D84500D953E100D14EE192
:100A0000049C0025013C4E4604944746A94658469E
:100A100003020C0E1C430902250C23041B0C00913D
:100A2000381C291C0193FFF701FB019983464143C0
:100A3000381C8A46291CFFF73DFB330C0904194377
:100A40008A450CD95B460919013B8C4200D947E124
:100A50008A4500D844E10222524293440919534680
:100A6000CB1A181C291C9846FFF7E0FA071C0198BE
:100A7000291C784382464046FFF71CFB36040B04D2
:100A8000360C33439A4509D91B197A1E9C4200D96A
:100A900024E19A4500D821E1023F1B195E46320449
:100AA0001743380CBB46009E009F51463F0C320452
:100AB0005B1A5946BA46120C0F043F0C9046514639
:100AC0007A434F434146414356467043CF19160C73
:100AD000BE19B14202D980277F02C019310C12041D
:100AE0003604120C4018B618834200D2C4E000D17C
:100AF000BEE0191A4846861BB145BF417F42CF1B55
:100B0000A74200D113E1291C381CFFF78FFA019985
:100B100002904143381C8946291CFFF7CBFA330C5D
:100B20000904194389450CD9029B0919013B8C42E0
:100B300000D9FFE0894500D8FCE0029F0919023F77
:100B400002974F46CF1B381C291C0597FFF76EFAFA
:100B5000071C0198291C784381460598FFF7AAFADB
:100B600036040904360C0E43B14509D936197B1EEB
:100B7000B44200D9E0E0B14500D8DDE0023F3619CB
:100B8000029D4946761A290439430B0457460A0C3C
:100B90001B0C40464546584355437B437A43EB186C
:100BA000070CDB199D4202D980256D0252191D0CDC
:100BB00000041B04000C52191B18964235D300D1B7
:100BC000FCE001231943049E994FF519002D00DC28
:100BD000A1E0480709D00F230B40042B05D00B1DC3
:100BE0008B42894149428B44191C5A46D20107D590
:100BF000904B5C46049E80271C40FF00A346F519DD
:100C00008D4B9D427ADD039C0122224000248B4DB6
:100C1000A146C1E680242403474627424CD13C43E9
:100C20002403240B009A854DB6E63619481EB442BB
:100C30005ED9011C9642C4D1009E9E42C1D1C2E73A
:100C4000031C283B311C99408B46002188E6301C50
:100C500001F0A4F8203072E6283B211C99400022C4
:100C60008846914651E6201C01F098F820303BE67A
:100C70000021B14500D33DE7009F5A46B944B9452C
:100C8000BF417F423F19FB18013A9C421ED2984255
:100C900000D97EE000D1B5E0191A93462AE78945CC
:100CA00000D8ADE64846464642467708D307460890
:100CB000C0071E438146AAE65846204212D104438B
:100CC00024032A1C240B89465C4D65E6A342E3D12C
:100CD000009F4F45DBD9211A93460BE7171CDDE631
:100CE0009B46BCE63C432403240B009A534D53E639
:100CF000B24259D800D18AE0011C62E75F46C908B8
:100D00007B07039E0B437C026D0501229946240B51
:100D10006D0D324040E64A4B049FDB1B382B10DD43
:100D2000039C0122224000240025A14634E6012133
:100D3000494248E7029304E71F1C21E7019C039402
:100D400041E71F2B40DC3F48049F0C1C3A185846D3
:100D50009140DC40904020430A1C511E8A41011CF6
:100D600011435A46DA40131C480709D00F220A40A3
:100D7000042A05D00A1D8A42894149425B18111C88
:100D80001A0234D5039C0122224000240125A146E9
:100D900002E6009F02214942B9448B44B94589418A
:100DA00049420919CB18A4E6009D881E6900A94292
:100DB000AD416D422C19361900913AE7002B00D055
:100DC00033E70024009437E71F4A049C5D46121B5A
:100DD000D5402A1C202B1FD01C4E5F46A3199F40D4
:100DE0003B1C19434B1E994111430023BCE75A0792
:100DF000C9080A43039F91465B0201221C0B3A403B
:100E00000025C9E54E45C4D89346002172E6009FEF
:100E10009F42C9D3011C0FE70023E2E7802424038B
:100E20005F463C432403240B019A8946034DB3E5F6
:100E3000FF030000FFFFFFFEFE070000FF070000AA
:100E400002FCFFFF1E040000E2FBFFFF3E04000067
:100E5000F0B55F4656464D464446F0B40D1C041CA2
:100E60008046E80F814618030F03000B3F0B83B049
:100E700084461B48009749005E00DF0F490D9246EB
:100E8000760DBB4681420CD01548864210D0012019
:100E9000B14215D003B03CBC90469946A246AB4641
:100EA000F0BD009F01202743F4D10D488642EED1CA
:100EB000604602430120002AECD10120B142E9D171
:100EC000009B6345E6D1D045E4D1D94506D0002941
:100ED000E0D11C43201C441EA041DBE70020D9E7E1
:100EE000FF070000F0B55F4656464D464446F0B455
:100EF000CD0FDE0FAC461D032D0BB146374E0F0351
:100F00004C00AB465D0080463F0B640D92466D0D74
:100F1000B44232D0314EB54235D0002C0ED13843D8
:100F200041424141081C002D0BD0002919D1CC456C
:100F30002DD0654668420123184318E0002DF6D1F4
:100F4000281C59460A4353425341002806D1002B1E
:100F5000EDD0634658420123184308E00020002BDF
:100F600005D14A46504250414042012318433CBCFF
:100F700090469946A246AB46F0BD3E1C0643C9D0FA
:100F800002204042F3E75E461643C6D0F8E7AC4283
:100F900007DC0BDA614648424841404201231843CE
:100FA000E5E76646704201231843E0E75F450AD84B
:100FB0000ED000205F45DAD2654668426841404263
:100FC00001231843D3E76246504201231843CEE77A
:100FD000D045F8D80020D045EED3C8E7FF07000081
:100FE000F0B556464D4644465F46F0B40D1C83B0FE
:100FF000041C0190E80F814618030F03000B3F0B00
:1010000084463548009749005E00DF0F490D92463F
:10101000760DB846814234D02F48864236D000291A
:1010200018D0002E1FD1341C67463A435342534117
:10103000002C1FD00020002B05D1424650425041C9
:1010400040420123184303B03CBC90469946A24657
:10105000AB46F0BD0098044360426041041C002E82
:10106000E2D00028E9D1C14515D04F46784201238E
:101070001843E8E7002BF6D04B46584201231843AB
:10108000E1E7009F02202743DDD1C5E76746022044
:101090001743D8D1C3E7B14204DD4A465042012389
:1010A0001843D0E7B14207DB00986045E4D80AD086
:1010B000009F00206745C6D24F46784278414042A3
:1010C00001231843BFE7019A5245D5D8019A002061
:1010D0005245F1D3B7E7C046FF070000F0B55646CA
:1010E00044465F464D46F0B41F1C0B031B0B9A464B
:1010F0004B0087B0041C80465B0DC80F161C029382
:101100008146002B68D0694B0299994232D08022E7
:10111000534652031A43D200630F1A439246644A5D
:10112000E000891880460291002400253B031B0B38
:101130009B467800FB0F321C400D039300D175E0F5
:101140005A4B984269D08022594652030A43730F82
:10115000D2001A43564B9346C018F200002303995D
:101160004E4671401C430F2C00D9A9E0514EA400FB
:101170003459A74653461C4300D087E00025AA46B1
:10118000A84608240225D1E74946022D6CD0032D3C
:1011900000D117E2012D00D058E10D40EDB200243E
:1011A000A9460023A0460020002125030A0D1C05A6
:1011B0002D0B1205404B2A43134023435B004C4642
:1011C0005B08E207191C4046114307B03CBC90463F
:1011D0009946A246AB46F0BD5346234350D05346F2
:1011E000002B00D184E1504600F0D8FD031E272BD0
:1011F00000DD76E128210D1A211C083B5246E9400A
:101200009A400D1C1543221C9A40AA4690462B4B2F
:1012100000241B1A0293002588E75B461E43032324
:10122000002E9CD1B3460022022398E75B4633434D
:1012300021D05846002800D14EE100F0AFFD27280C
:1012400000DD42E128210F1A021C311C083A5B46DE
:10125000F94093400F1C1F43331C9340BB461A1C9C
:10126000164B181A00237AE701230B4000249946F5
:10127000A0460E4B97E70027BB46002201236EE7EE
:10128000002104248A46884601254FE70C240325C3
:101290004CE700258024A9462403A846034B82E797
:1012A000DA46904603991D1C6FE7C046FF07000011
:1012B00001FCFFFF90200200FFFF0F800DFCFFFFED
:1012C000029F160C381804904046070C0004000CCE
:1012D0001204120C031C5343041C3D1C744355435D
:1012E00098463B1C73436419A44644460293230C5E
:1012F00063449D4204D9029D802464022D19029505
:101300001D0C039545462C041B04240C1C19059444
:101310005C46230C051C58432404240C8446381CCA
:10132000604365435F438146CC44280C6044BB4620
:10133000814502D980277F02BB442D04070C2D0C68
:10134000000440195546BC462F04E3448446280C4B
:101350003D0C2F1C5743B8462F1C77434243B946D8
:1013600047463F0C9144BA46D14446434A4502D9C8
:1013700080225202B6184F463A0CB6183A04474635
:101380003F043F0CB8462F1C67435D43444358431A
:1013900065190190380C2D184244B846AC4204D966
:1013A000019880235B02C0180190039C029F201CBF
:1013B0006044C0196045A44147466442A4462B04DA
:1013C0003C049946240C4C44A046D8448018C2469C
:1013D000E24490429241574652429146F219E24508
:1013E000BF417F424B46BC46D845BF41D4187F42DF
:1013F00063461F432D0C7F19B24292414C45AD41CB
:1014000052426D421543019E7D19AB19E20D5B02FC
:10141000059F134342023A439A46531E9A41C30D15
:10142000101C18436402204380465046C0010DD56D
:10143000454601225646049C6B082A401A43F3078E
:1014400001341A43760804949046B246049E634FD2
:10145000F319002B61DD404640070BD00F224446B4
:101460002240042A06D0424604324245804140428E
:10147000824490465546ED0107D5594B5646049F88
:1014800080201E40C000B2463B18564A934200DD01
:10149000EAE644465546E2086807104301226C021A
:1014A0005B050A408046240B5B0D91467BE6DA46DD
:1014B00090461D1C69E680242403574627421CD110
:1014C0003C432403240B484B6DE6031C283B311C92
:1014D00099408B460022C3E6301C00F05FFC2030B0
:1014E000ADE6283B211C994000228A4690468EE6B4
:1014F000201C00F053FC203078E65846204207D1EB
:10150000044303992403240B89469046364B4AE64C
:101510003C432403240B344B45E6344B049E9B1B75
:10152000382B06DD01230B4000249946A0460023FA
:1015300039E61F2B25DC049C2D4D4646601952468A
:1015400044468640DC4082405746301C2243DF4000
:10155000441EA04102433B1C540709D00F201040F9
:10156000042805D0101D9042924152429B18021C43
:101570001D021AD501230B4000249946A0460123E1
:1015800011E61C48049C5546001BC540281C202B16
:1015900016D0194E5746A21997403A1C43461A4393
:1015A000531E9A4102430023D6E758075B02D20834
:1015B0001C0B01230B401043994680460023F2E5A3
:1015C0000022EBE780242403504601230443194002
:1015D0002403240B8946044BE5E5C046FF030000C5
:1015E000FFFFFFFEFE070000FF07000002FCFFFFF9
:1015F0001E040000E2FBFFFF3E040000F8B55F465A
:10160000564644464D46F0B40C034D00CF0F610AD8
:10161000440F2143C4001803DE0F8046B4464646FB
:101620005800760A530F3343D600C94A6D0DBA46A7
:10163000400DB346904200D1EBE062460126724075
:101640009446674500D1A1E02F1A002F00DC08E185
:1016500000283BD15846184300D0E8E0600709D085
:101660000F232340042B05D0231DA342A441644231
:1016700009191C1C0A0200D479E0B54B6A1C9A4275
:1016800000D109E1B34BE40819404807044349027B
:101690005205012750460B0B520D07400020002138
:1016A0001B03201C1C0B0B0D1B05AB4D23435205CC
:1016B00052081D4015436D006D08FF07291C394372
:1016C0003CBC90469946A246AB46F8BDA048854230
:1016D000C4D0802000040343382F00DDF0E01F2F2A
:1016E00000DD24E12020C01B1A1C5E468240FE4023
:1016F000324394465A468240101C421E9041FB40A1
:10170000624602431F1CA21A9442A4416442C91BB0
:10171000091B141C0A02A1D549024F0A002F00D14F
:10172000C9E0381C00F03AFB021C083A1F2A00DD11
:10173000BCE02821231C091A9740CB401F4394404A
:10174000954200DDAEE0551B691C1F2900DDDDE080
:101750001F22551B3B1C221CAB40CA40AC40651EDF
:10176000AC411343CF401C43391C002576E74807A2
:10177000E4086A0501275646C908520D374004435C
:10178000734B9D4249D009030B0B87E72A1A9446F5
:10179000002A00DC9BE0002855D06D48854200D12E
:1017A0005CE78020000403436046382800DD09E13F
:1017B0001F2800DD50E162462020801A1E1C864052
:1017C000B1465E46D6404A4632435E468640904623
:1017D000301C421E9041424602436046C3401219EB
:1017E000A242A441644259180919141C080200D4E9
:1017F00034E7574B01359D4200D142E1554B60081B
:101800001940012323401C1C0443CB071C434908F7
:1018100024E71E4300D014E70FE70B1C234300D13D
:10182000CFE180231B030B431B031B0B36E7013F58
:10183000002F66D15E46A21B9442A4416442C91A9D
:10184000091B141C66E75846184300D106E7012619
:101850007642B4446046002800D0CAE05E463219A1
:10186000BEE7002F7AD1681C4005400D012800DC3E
:10187000E3E05A46A21A9442BF41C81A7F42C71BEE
:101880003E0200D492E05846041BA3459241591AE7
:1018900052428F1AE24641E7534601271F40002477
:1018A0000023FBE62B49AD1A3940D7E6271C283820
:1018B0008740002444E7201C00F070FA203033E712
:1018C0005A461A43531E9A41D2B200271BE7002AF8
:1018D00000D0E1E0681C4605760D012E00DC91E0A9
:1018E0001B4DA84200D1F7E05E463219A242A44146
:1018F000644259180919CC07520814434908051CB9
:10190000ACE61348854200D0E6E6A7E62B1C1F3B59
:101910003E1CDE40331C202970D03F22551BAF40B7
:101920003C43601E84411C430021002596E6381C80
:1019300020381E1CC640301C202F61D04022D71BEF
:10194000BB405A461A43531E9A4102430027DAE627
:10195000FF070000FFFF7FFFFFFF0F80002D38D043
:10196000B94DA84200D192E080252D047F42294341
:10197000382F00DDAAE01F2F00DD2CE12025ED1B14
:101980000E1CAE40B046261CFE404246AC401643FC
:10199000651EAC413443F9405A46141BA34592419D
:1019A0005B1A5242991A051CE246B3E6131C3B43EC
:1019B000141C002B00D0B1E60027002200250021D6
:1019C0000024DDE65A461A43531E9A41D2B2002340
:1019D00005E70D1C25435AD0FF43002F53D15A462B
:1019E000141BA3459241591A5242891A051CE2461A
:1019F00090E69548854200D0D6E62FE600278FE78F
:101A000000239EE7081C2043002D00D0C3E00028DF
:101A100000D1F6E05846184300D11FE65846021997
:101A2000A242A441644259180919141C0A0200D4A4
:101A300014E6864B0125194010E6081C2043002DB2
:101A40003AD1002800D089E05946194300D1BFE0BF
:101A5000191C5C46E24601E6604620381A1CC2406A
:101A60006646101C202E00D1B0E04022921B93400D
:101A70005A461A43531E9A4102430023AFE6724D61
:101A800000272A1C9BE7704DA84200D070E7191C64
:101A90005C46051CE246E1E5002D20D10D1C2543E6
:101AA00075D0D543002D6FD15C445C4592415918E7
:101AB00052428918051C99E6002835D15946194328
:101AC000DDD0191C5C46E2465F4DC7E50C43611E44
:101AD0008C41E4B200215FE7051C021C6FE75A4D00
:101AE000A84254D05542802216043143382D00DDDF
:101AF00081E01F2D00DD91E02022561B0A1CB44618
:101B0000B240261CEE403243904662469440661E28
:101B1000B44142461443E9405C445C459241CB18D1
:101B200052429918051C61E6584618434CD04807A4
:101B3000E40804438020C9080003014208D0DD08FE
:101B4000054205D15946CA085C071443291CE246E0
:101B5000630FC9001943E4003B4D7FE55846184325
:101B600000D17BE55E46A71BBC429241C81A524297
:101B7000801A06024CD55846041BA3459241591AB7
:101B80005242891AE24669E52F4A9042AED1191CA9
:101B90005C46051C62E5002836D05846184313D031
:101BA00080254807E408C9082D0304432942CFD003
:101BB000D8082842CCD15D46EA085C071443011CD2
:101BC000C6E70023002469E51F4D47E500234FE7E2
:101BD00000270022F3E63D1C203D0E1CEE40351C84
:101BE000202F2DD04026F71BB9400C43611E8C419D
:101BF0002C430021D0E60C43611E8C41E4B200214D
:101C00008AE7191C5C4629E5191C5C460E4D25E542
:101C1000031C3B43DCD0011C3C1C1FE52026764204
:101C200076190A1CF2409046202D0BD04026751BD9
:101C3000A9400C43611E8C4145462C4300216BE7B3
:101C40000021D2E70021F4E7FF070000FFFF7FFF3C
:101C500070B50B1C124C09030E0B5900021C490DE8
:101C6000DD0F0020A14211DD0E4881420FDC8020F3
:101C7000400306430C48401A1F280BDD0B4A521A3A
:101C8000D640321C5042002D00D1101C70BD084BB4
:101C9000E818FBE7074BC240C9188E403243F1E712
:101CA000FE0300001D0400003304000013040000C4
:101CB000FFFFFF7FEDFBFFFFF8B5041E31D0C70F1C
:101CC00000D04442201C00F069F8184D2D1A0A2853
:101CD00019DD0B38844024036D05240B6D0D3A1C6F
:101CE0000026002000210B0D2403240B1B05234399
:101CF0000F4C2D051C402C4364006408D307211CA5
:101D0000301C1943F8BD061C1536231CB3401E1C9D
:101D10000B23181AC44024036D05240B6D0D3A1CC7
:101D2000DFE70022002500240026DAE71E04000079
:101D3000FFFF0F8010B5041E28D000F02FF8154AC1
:101D4000121A0A2815DD0B38844024035205240B8F
:101D5000520D0023002000212403181C0B0D240B1E
:101D60001B0523430C4C12051C40144364006108FE
:101D700010BD031C1533211C99400B1C0B21081AA4
:101D8000C44024035205240B520DE3E70022002433
:101D90000023DFE71E040000FFFF0F801C2101234A
:101DA0001B04984201D3000C10391B0A984201D33E
:101DB000000A08391B09984201D30009043902A21C
:101DC000105C40187047C046040302020101010183
:101DD000000000000000000070B50E4B0E4D002406
:101DE000ED1AAD101E1CAC4204D0A300F358984766
:101DF0000134F8E700F06CF9084B094D0024ED1AA6
:101E0000AD101E1CAC4204D0A300F3589847013417
:101E1000F8E770BDDC200200DC200200DC200200BC
:101E2000E8200200031C8218934202D0197001338B
:101E3000FAE770470023C25C0133002AFBD1581E29
:101E40007047496E697469616C697A696E6720418F
:101E500075746F6D61746564204D6F64756C61722B
:101E600020477265656E686F7573652E2E2E00466D
:101E7000696E697368656420496E697469616C692B
:101E80007A6174696F6E0A0052656164696E6720D9
:101E9000696E666F2066726F6D204448542E2E2E38
:101EA00000436865636B73756D206F6B0044485425
:101EB0002048756D69646974793A2000444854205B
:101EC00054656D70657261747572653A200043687F
:101ED00065636B73756D206572726F720054696D06
:101EE00065206F7574206572726F7200556E6B6E2F
:101EF0006F776E206572726F720046616E20537448
:101F00006174732E2E2E0046616E20706F7765729D
:101F10002073746174653A2000536176656420769D
:101F200061726961626C65732E2E2E005461726756
:101F300065742074656D70657261747572653A20A0
:101F4000005475726E696E672066616E206F6E2038
:101F5000746F20636F6F6C005475726E696E6720CA
:101F600066616E206F666620746F207761726D0007
:101F7000424C45202B2055415254203E20393630CA
:101F8000302062617564206E6F74207265636F6DBE
:101F90006D656E6465642064756520746F2063727E
:101FA00069746963616C20424C452074696D696E87
:101FB0006720726571756972656D656E74732E0D3B
:101FC0000A546F206F766572726964652C206164B3
:101FD000643A206F766572726964655F75617274C8
:101FE0005F6C696D6974203D20747275653B207467
:101FF0006F2074686520746F70206F66207365743D
:102000007570282920696E20796F757220736B6551
:102010007463682E006E616E00696E66006F76668E
:1020200000000000000000000000000000000000B0
:10203000FDFD010095FA010057FD01007DFD010045
:1020400067FD01009DFD010053FD0100000000003F
:10205000F00902008C090200D4090200BA0802004B
:10206000D4090200C8090200D4090200BA0802001B
:102070008C0902008C090200C8090200BA0802009B
:10208000B0080200B0080200B0080200140C020000
:10209000C0120200AE140200AE140200A012020030
:1020A0008A1102008A11020092120200A01202009C
:1020B0008A110200921202008A110200A01202008C
:1020C000881102008811020088110200B614020073
:1020D000F8B5C046F8BC08BC9E467047E9F0010060
:1020E000DDF40100ADF50100F8B5C046F8BC08BC50
:0820F0009E467047C1F001009B
:1020F800FFFFFFFF17000000FFFFFFFF881300002E
:10210800FFFFFFFFFFFFFFFFFFFFFFFFFFFFFFFFD7
:10211800FFFFFFFFFFFFFFFFFFFFFF007020002012
:102128000000000031FF010031FF010031FF010014
:102138000000000000000000000000000000000097
:1021480000000000000000000000000031FF010056
:10215800000000000000000031FF010031FF010015
:102168000000000000000000000000000000000067
:102178000000000000000000000000000000000057
:102188000000000000000000000000000000000047
:102198000000000000000000000000000000000037
:1021A8000000000000000000000000000000000027
:1021B8000000000000000000000000000000000017
:1021C8000000000000000000000000000000000007
:1021D80000000000000000000000000000000000F7
:040000031000F000F9
:00000001FF
