:100000000C9463000C948B000C948B000C948B006C
:100010000C948B000C948B000C948B000C948B0034
:100020000C948B000C948B000C948B000C948B0024
:100030000C948B000C948B000C948B000C948B0014
:100040000C9414030C948B000C9415050C9463050C
:100050000C948B000C948B000C948B000C948B00F4
:100060000C948B000C948B000000000024002700EF
:100070002A0000000000250028002B0000000000DE
:1000800023002600290004040404040404040202DA
:100090000202020203030303030301020408102007
:1000A0004080010204081020010204081020000012
:1000B0000007000201000003040600000000000029
:1000C00000007801CF0611241FBECFEFD8E0DEBFBD
:1000D000CDBF12E0A0E0B1E0ECE6F7E102C0059090
:1000E0000D92A835B107D9F713E0A8E5B2E001C039
:1000F0001D92A532B107E1F710E0C6ECD0E004C0D4
:100100002297FE010E94B00BC23CD107C9F70E94A2
:1001100005030C94B40B0C9400000895FC0182813B
:100120000895FC01628380810E946D040895FC01A2
:10013000862F6083718361E00E942E0408958F9260
:100140009F92AF92BF92CF92DF92EF92FF920F9366
:100150001F93CF93DF935C01D62EE42EFC01108613
:100160001186128613861486862F61E00E942E0463
:100170008D2D60E00E946D04FF2400E010E0C801B6
:10018000B7010E9490038D2D61E00E946D0488E20A
:1001900090E00E94E9038D2D60E00E942E04C0E9EA
:1001A000D1E002C0219741F18D2D0E94C104892B1D
:1001B000C9F3C0E9D1E002C02197F1F08D2D0E9472
:1001C000C1040197C9F303C0219741F415C040E869
:1001D000C42E882438E2932EC0E9D1E08D2D0E94F0
:1001E000C104892B89F30E946A037B018C01C0E959
:1001F000D1E005C0219719F42EEF3FEF2CC08D2DD3
:100200000E94C1040197B1F30E946A036E197F092D
:10021000800B910B693271058105910530F0F50174
:10022000E80DF11D80858C2980878C2D90E09595B7
:100230008795C82E882319F4839480E8C82E9A9451
:1002400059F68D2D61E00E942E048D2D61E00E94F3
:100250006D0420E030E0C901DF91CF911F910F9133
:10026000FF90EF90DF90CF90BF90AF909F908F90D6
:100270000895EF92FF920F931F93CF93DF93EC01BA
:1002800042E10E949F007C01009769F080E090ECC1
:10029000A9E7B4EC88839983AA83BB838C839D836D
:1002A000AE83BF831DC00885602F70E080E090E0C2
:1002B0000E94500A688379838A839B831A85612F01
:1002C00070E080E090E00E94500A6C837D838E8312
:1002D0009F83100F8C85811719F0EE24EA94FE2C71
:1002E000C701DF91CF911F910F91FF90EF9008957B
:1002F0008CE592E00E948D008FE592E00E948D00D7
:1003000082E692E00E948D000895EF92FF920F9393
:100310001F930E945C037B018C0180915802909195
:100320005902A0915A02B0915B02A8019701281BC3
:10033000390B4A0B5B0B80913D0290913E02A091DC
:100340003F02B091400282179307A407B50708F057
:1003500022C1E0925802F092590200935A0210937F
:100360005B028CE592E061E00E94910083E093E003
:1003700060E071E00E943B0985E692E06CE00E943B
:1003800039012FEF8F3F920709F45CC0009729F0E5
:100390008E5F9F4F09F060C05AC083E093E069E12F
:1003A00071E00E943B0983E093E065E271E00E9406
:1003B0005108409165025091660260916702709108
:1003C000680283E093E022E030E00E943809609107
:1003D00065027091660280916702909168020E94A6
:1003E0001F0A709344026093430283E093E064E346
:1003F00071E00E943B0983E093E065E371E00E94B5
:1004000051084091690250916A0260916B027091AB
:100410006C0283E093E022E030E00E9438096091B2
:10042000690270916A0280916B0290916C020E9445
:100430001F0A709342026093410283E093E064E3F9
:1004400071E00EC083E093E067E471E009C083E0EF
:1004500093E066E571E004C083E093E065E671E057
:100460000E943B0983E093E064E371E00E943B0952
:1004700083E093E063E771E00E943B0983E093E04F
:1004800060E871E00E9451088FE592E00E948E00C2
:10049000682F83E093E070E04AE050E00E943E085D
:1004A00083E093E064E371E00E943B0980914102A4
:1004B000909142022FEF8F3F9207B9F120914502B0
:1004C000309146022817390781F1281739078CF433
:1004D0008FE592E00E948E00882359F483E093E038
:1004E00062E971E00E943B098FE592E061E00E94C1
:1004F00091002091450230914602809141029091F5
:100500004202821793078CF48FE592E00E948E00DE
:10051000882359F083E093E069EA71E00E943B0987
:100520008FE592E060E00E94910083E093E064E355
:1005300071E00E943B0983E093E061EC71E00E946E
:100540003B0983E093E064ED71E00E945108609103
:10055000450270914602882777FD8095982F0E946A
:10056000520AAB01BC0183E093E022E030E00E943C
:10057000380983E093E064E371E00E943B0983E083
:1005800093E064E371E00E943B0983E093E064E35D
:1005900071E00E943B098CE592E00E948E00882366
:1005A00029F08CE592E060E00E9491001F910F918C
:1005B000FF90EF9008950F931F9303E013E0C8019D
:1005C00040E855E260E070E00E949E05C80169EED7
:1005D00071E00E943B098CE592E06DE070E00E94C2
:1005E00097008FE592E06BE070E00E94970082E652
:1005F00092E06AE070E00E949700C80166E172E054
:100600000E943B091F910F910895CF93DF930E94A1
:10061000F3030E94DB02C0E5D5E00E94850120972C
:10062000E1F30E945005F9CF1F920F920FB60F927F
:1006300011242F933F938F939F93AF93BF938091F8
:10064000760290917702A0917802B0917902309170
:100650007A020196A11DB11D232F2D5F2D3720F0A9
:100660002D570196A11DB11D20937A028093760229
:1006700090937702A0937802B093790280917202EE
:1006800090917302A0917402B09175020196A11D20
:10069000B11D8093720290937302A0937402B09381
:1006A0007502BF91AF919F918F913F912F910F90C4
:1006B0000FBE0F901F9018958FB7F8942091760277
:1006C0003091770240917802509179028FBFB90141
:1006D000CA0108959FB7F894209172023091730275
:1006E000409174025091750286B5A89B06C08F3F59
:1006F00021F02F5F3F4F4F4F5F4F9FBF542F432F2E
:10070000322F2227280F311D411D511D82E0220F5B
:10071000331F441F551F8A95D1F7B901CA010895A7
:100720009B01AC017FB7F8948091720290917302A3
:10073000A0917402B091750266B5A89B05C06F3F89
:1007400019F00196A11DB11D7FBFBA2FA92F982FB7
:100750008827860F911DA11DB11D62E0880F991F8A
:10076000AA1FBB1F6A95D1F7BC012DC0FFB7F89433
:100770008091720290917302A0917402B0917502FF
:10078000E6B5A89B05C0EF3F19F00196A11DB11D6C
:10079000FFBFBA2FA92F982F88278E0F911DA11D5B
:1007A000B11DE2E0880F991FAA1FBB1FEA95D1F780
:1007B000861B970B885E9340C8F221503040404022
:1007C000504068517C4F211531054105510571F6A6
:1007D0000895019739F0880F991F880F991F029784
:1007E0000197F1F70895789484B5826084BD84B54B
:1007F000816084BD85B5826085BD85B5816085BD1C
:10080000EEE6F0E0808181608083E1E8F0E0108234
:10081000808182608083808181608083E0E8F0E075
:10082000808181608083E1EBF0E08081846080835F
:10083000E0EBF0E0808181608083EAE7F0E0808196
:1008400084608083808182608083808181608083F6
:100850008081806880831092C1000895CF93DF93D8
:10086000482F50E0CA0186569F4FFC0134914A57E9
:100870005F4FFA018491882369F190E0880F991FF6
:10088000FC01E859FF4FA591B491FC01EE58FF4FD0
:10089000C591D491662351F42FB7F8948C91932F7E
:1008A000909589238C93888189230BC0623061F4F1
:1008B0002FB7F8948C91932F909589238C938881EE
:1008C000832B88832FBF06C09FB7F8948C91832B0E
:1008D0008C939FBFDF91CF910895482F50E0CA01BC
:1008E00082559F4FFC012491CA0186569F4FFC01FF
:1008F00094914A575F4FFA013491332309F440C071
:10090000222351F1233071F0243028F42130A1F05A
:10091000223011F514C02630B1F02730C1F0243058
:10092000D9F404C0809180008F7703C0809180004B
:100930008F7D8093800010C084B58F7702C084B50E
:100940008F7D84BD09C08091B0008F7703C08091F6
:10095000B0008F7D8093B000E32FF0E0EE0FFF1F1B
:10096000EE58FF4FA591B4912FB7F894662321F468
:100970008C919095892302C08C91892B8C932FBFE9
:100980000895682F70E0CB0182559F4FFC012491A0
:10099000CB0186569F4FFC0144916A577F4FFB0164
:1009A0009491992319F420E030E03CC0222351F1C6
:1009B000233071F0243028F42130A1F0223011F5D9
:1009C00014C02630B1F02730C1F02430D9F404C06F
:1009D000809180008F7703C0809180008F7D80930D
:1009E000800010C084B58F7702C084B58F7D84BD30
:1009F00009C08091B0008F7703C08091B0008F7DD7
:100A00008093B000892F90E0880F991F84589F4FE2
:100A1000FC01A591B4918C9120E030E0842311F089
:100A200021E030E0C901089508951F920F920FB69A
:100A30000F9211242F933F934F938F939F93EF9394
:100A4000FF938091C00082FD1DC04091C60020919F
:100A5000BB023091BC022F5F3F4F2F7330708091EB
:100A6000BD029091BE022817390771F0E091BB02D8
:100A7000F091BC02E558FD4F40833093BC022093B7
:100A8000BB0202C08091C600FF91EF919F918F91B0
:100A90004F913F912F910F900FBE0F901F9018957F
:100AA000E0910F03F0911003E05CFF4F8191919171
:100AB00020813181821B930B8F739070892B11F0F1
:100AC0000E94140508951F920F920FB60F921124E1
:100AD0002F933F938F939F93EF93FF932091FF0268
:100AE0003091000380910103909102032817390788
:100AF00031F48091C1008F7D8093C10014C0E091DA
:100B00000103F0910203E154FD4F20818091010324
:100B10009091020301968F739070909302038093DB
:100B200001032093C600FF91EF919F918F913F9118
:100B30002F910F900FBE0F901F901895AF92BF92FC
:100B4000DF92EF92FF920F931F93CF93DF93EC010D
:100B50007A018B01DD24403081EE580780E0680780
:100B600080E0780711F0DD24D39491E0A92EB12C18
:100B7000EC89FD89DD2069F0C50108A002C0880F5D
:100B8000991F0A94E2F7808360E079E08DE390E0BA
:100B900005C0108260E874E88EE190E0A80197013A
:100BA0000E948C0B21503040404050405695479554
:100BB0003795279580E12030380720F0DD2011F0AF
:100BC000DD24D6CFE889F9893083EA89FB8920833F
:100BD00019A2EE89FF89408121E030E0C9010C8C27
:100BE00002C0880F991F0A94E2F7482B4083EE89D0
:100BF000FF894081C9010D8C02C0880F991F0A949A
:100C0000E2F7482B4083EE89FF894081C9010E8CB1
:100C100002C0880F991F0A94E2F7482B4083EE899F
:100C2000FF8980810F8C02C0220F331F0A94E2F7E4
:100C3000209528232083DF91CF911F910F91FF9062
:100C4000EF90DF90BF90AF900895DC011C96ED917E
:100C5000FC911D97E05CFF4F219131918081918142
:100C6000281B390B2F733070C9010895DC011C96C5
:100C7000ED91FC911D97E05CFF4F20813181E054A4
:100C8000F040DF01AE5BBF4F8D919C91119728170B
:100C9000390719F42FEF3FEF07C08D919C91E80FB2
:100CA000F91F8081282F30E0C9010895DC011C96CE
:100CB000ED91FC911D97E05CFF4F20813181E05464
:100CC000F040DF01AE5BBF4F8D919C9111972817CB
:100CD000390719F42FEF3FEF10C08D919C911197B8
:100CE000E80FF91F20818D919C91119701968F73C8
:100CF000907011969C938E9330E0C9010895DC01A9
:100D000091968C919197882339F05496ED91FC91AE
:100D10005597808186FFF9CF91961C920895CF93C5
:100D2000DF93EC01EE85FF85E05CFF4F2081318190
:100D3000E054F0402F5F3F4F2F733070DF01AE5B08
:100D4000BF4F8D919C91119728173907D1F3E05C23
:100D5000FF4F80819181E054F040E80FF91F6083DC
:100D6000EE85FF85E05CFF4F31832083EE89FF89AC
:100D7000208181E090E00F8C02C0880F991F0A94B7
:100D8000E2F7282B208381E089A3EC89FD8980810B
:100D90008064808381E090E0DF91CF91089510928C
:100DA00006031092050388EE93E0A0E0B0E0809384
:100DB000070390930803A0930903B0930A038BE4FD
:100DC00092E090930403809303038BE792E0909367
:100DD000100380930F038FEB92E0909312038093A4
:100DE000110385EC90E0909314038093130384EC3B
:100DF00090E0909316038093150380EC90E090931D
:100E000018038093170381EC90E090931A0380936A
:100E1000190382EC90E090931C0380931B0386ECF3
:100E200090E090931E0380931D0384E080931F0342
:100E300083E08093200387E08093210385E0809303
:100E4000220381E0809323030895CF92DF92EF92F3
:100E5000FF920F931F93CF93DF937C016B018A0165
:100E6000C0E0D0E00FC0D6016D916D01D701ED91CA
:100E7000FC910190F081E02DC7010995C80FD91FA1
:100E8000015010400115110571F7CE01DF91CF918E
:100E90001F910F91FF90EF90DF90CF900895EF9208
:100EA000FF920F931F938C01DC01ED91FC91019057
:100EB000F081E02D6DE009957C01D801ED91FC9168
:100EC0000190F081E02DC8016AE009959C012E0D8A
:100ED0003F1DC9011F910F91FF90EF900895CF938F
:100EE000DF93EC016115710519F420E030E00FC0CB
:100EF000DB010D900020E9F71197A61BB70BE881E5
:100F0000F9810280F381E02DAD0109959C01C901B1
:100F1000DF91CF9108954F925F927F928F929F922F
:100F2000AF92BF92CF92DF92EF92FF920F931F93F7
:100F3000DF93CF93CDB7DEB7A1970FB6F894DEBF9E
:100F40000FBECDBF2C01742ECB01223008F42AE055
:100F500019A231E2C32ED12CCC0EDD1E822E992493
:100F6000AA24BB24672D752FA50194010E948C0B28
:100F700079018A01C801B701A50194010E946D0B96
:100F8000472D461B0894C108D1084A3014F4405D2F
:100F900001C0495CF6014083E114F104010511052B
:100FA00021F07E2C5F2DC801DDCFC201B6010E9469
:100FB0006F07A1960FB6F894DEBF0FBECDBFCF91DD
:100FC000DF911F910F91FF90EF90DF90CF90BF9036
:100FD000AF909F908F907F905F904F900895DC012D
:100FE0002115310541F4ED91FC910190F081E02D46
:100FF000642F099508950E948B070895CF92DF9280
:10100000EF92FF920F931F93CF93DF93EC016A014E
:101010007B012115310541F4E881F9810190F081CE
:10102000E02D642F09951FC02A303105D1F477FFD8
:1010300017C0E881F9810190F081E02D6DE20995FA
:101040008C0144275527BA014C195D096E097F09A7
:10105000CE012AE00E948B079801280F391F04C097
:101060002AE00E948B079C01C901DF91CF911F915B
:101070000F91FF90EF90DF90CF900895EF92FF9245
:101080000F931F937B019A010027F7FC0095102F07
:10109000B801A7010E94FE071F910F91FF90EF90EA
:1010A00008950E946F0708957F928F929F92AF924A
:1010B000BF92CF92DF92EF92FF920F931F93CF9345
:1010C000DF934C017A018B01722ECB01BA01A8018A
:1010D00097010E94690B882321F0C4016FE272E03E
:1010E00021C0C0E0D0E057016801E894D7F8C601FC
:1010F000B5012FEF3FEF4FE75FE70E94690B8823B1
:1011000051F4C601B5012FEF3FEF4FE75FE70E94B3
:10111000B309181614F0C1E0D0E0219739F0C401EA
:1011200063E372E00E946F07EC0193C0C801B7014E
:101130002FEF3FEF4FE75FE40E94020B181654F0C9
:10114000C801B7012FEF3FEF4FE75FEC0E94B309F3
:10115000882324F4C40167E372E0E4CFC801B70137
:1011600020E030E040E050E00E94B30987FD03C07A
:10117000C0E0D0E00EC0D401ED91FC910190F0816F
:10118000E02DC4016DE20995EC0117FB109517F9EC
:10119000109520E030E040E05FE3DD240BC0CA01A1
:1011A000B90120E030E040E251E40E94B7099B0120
:1011B000AC01D394D71498F3C801B7010E944F092A
:1011C0005B016C010E94240A7B018C01C401B801FF
:1011D000A7012AE030E00E94EF07C80FD91F77204F
:1011E00039F0C4016BE372E00E946F07C80FD91F8A
:1011F000C801B7010E94500A9B01AC01C601B501AC
:101200000E944E0924C020E030E040E251E40E94F8
:10121000060B7B018C010E941F0A5B016C01CC2430
:10122000B7FCC094DC2CC401B601A5012AE030E073
:101230000E94FE07C80FD91FC601B5010E94520ABD
:101240009B01AC01C801B7010E944E097A94772036
:10125000D1F6CE01DF91CF911F910F91FF90EF90CA
:10126000DF90CF90BF90AF909F908F907F90089528
:101270000E9454080895EF92FF920F931F937C01F0
:101280000E946F078C01C7010E944F07080F191FAA
:10129000C8011F910F91FF90EF9008955058BB2700
:1012A000AA270ED075C166D130F06BD120F031F491
:1012B0009F3F11F41EF45BC10EF4E095E7FB51C1B2
:1012C000E92F77D180F3BA17620773078407950770
:1012D00018F071F49EF58FC10EF4E0950B2EBA2F25
:1012E000A02D0B01B90190010C01CA01A00111242C
:1012F000FF27591B99F0593F50F4503E68F11A16D8
:10130000F040A22F232F342F4427585FF3CF469568
:1013100037952795A795F0405395C9F77EF41F168A
:10132000BA0B620B730B840BBAF09150A1F0FF0F54
:10133000BB1F661F771F881FC2F70EC0BA0F621F40
:10134000731F841F48F4879577956795B795F79530
:101350009E3F08F0B3CF9395880F08F09927EE0FC2
:10136000979587950895D9D008F481E008950CD019
:101370000FC107D140F0FED030F021F45F3F19F0EB
:10138000F0C0511139C1F3C014D198F39923C9F3B6
:101390005523B1F3951B550BBB27AA27621773077B
:1013A000840738F09F5F5F4F220F331F441FAA1F2F
:1013B000A9F333D00E2E3AF0E0E830D091505040EF
:1013C000E695001CCAF729D0FE2F27D0660F771F9D
:1013D000881FBB1F261737074807AB07B0E809F07F
:1013E000BB0B802DBF01FF2793585F4F2AF09E3F14
:1013F000510568F0B6C000C15F3FECF3983EDCF3E6
:10140000869577956795B795F7959F5FC9F7880F8C
:10141000911D9695879597F90895E1E0660F771FDE
:10142000881FBB1F621773078407BA0720F0621B6F
:10143000730B840BBA0BEE1F88F7E095089504D068
:101440006894B111D9C00895BCD088F09F5790F02E
:10145000B92F9927B751A0F0D1F0660F771F881FD9
:10146000991F1AF0BA95C9F712C0B13081F0C3D0F4
:10147000B1E00895C0C0672F782F8827B85F39F092
:10148000B93FCCF3869577956795B395D9F73EF438
:1014900090958095709561957F4F8F4F9F4F0895E0
:1014A000E89409C097FB3EF49095809570956195FE
:1014B0007F4F8F4F9F4F9923A9F0F92F96E9BB27B4
:1014C0009395F695879577956795B795F111F8CF30
:1014D000FAF4BB0F11F460FF1BC06F5F7F4F8F4F9B
:1014E0009F4F16C0882311F096E911C0772321F091
:1014F0009EE8872F762F05C0662371F096E8862F29
:1015000070E060E02AF09A95660F771F881FDAF77F
:10151000880F9695879597F90895990F0008550FAC
:10152000AA0BE0E8FEEF16161706E807F907C0F069
:1015300012161306E407F50798F0621B730B840B71
:10154000950B39F40A2661F0232B242B252B21F44B
:1015500008950A2609F4A140A6958FEF811D811DEB
:10156000089597F99F6780E870E060E008959FEF25
:1015700080EC089500240A9416161706180609062A
:10158000089500240A9412161306140605060895F9
:10159000092E0394000C11F4882352F0BB0F40F481
:1015A000BF2B11F460FF04C06F5F7F4F8F4F9F4FC1
:1015B000089557FD9058440F551F59F05F3F71F043
:1015C0004795880F97FB991F61F09F3F79F08795AA
:1015D0000895121613061406551FF2CF4695F1DF33
:1015E00008C0161617061806991FF1CF86957105C3
:1015F000610508940895E894BB2766277727CB01F7
:1016000097F908958ADF08F48FEF08950BD0C0CFC3
:10161000B1DF28F0B6DF18F0952309F0A2CFA7CFED
:101620001124EACFC6DFA0F3959FD1F3950F50E0C8
:10163000551F629FF001729FBB27F00DB11D639F84
:10164000AA27F00DB11DAA1F649F6627B00DA11D2A
:10165000661F829F2227B00DA11D621F739FB00DD0
:10166000A11D621F839FA00D611D221F749F332740
:10167000A00D611D231F849F600D211D822F762FD9
:101680006A2F11249F5750408AF0E1F088234AF0D6
:10169000EE0FFF1FBB1F661F771F881F9150504022
:1016A000A9F79E3F510570F05CCFA6CF5F3FECF3EA
:1016B000983EDCF3869577956795B795F795E7950E
:1016C0009F5FC1F7FE2B880F911D9695879597F91F
:1016D000089523DF880B990B0895629FD001739FB3
:1016E000F001829FE00DF11D649FE00DF11D929FBE
:1016F000F00D839FF00D749FF00D659FF00D9927FD
:10170000729FB00DE11DF91F639FB00DE11DF91F20
:10171000BD01CF0111240895A1E21A2EAA1BBB1B03
:10172000FD010DC0AA1FBB1FEE1FFF1FA217B307AD
:10173000E407F50720F0A21BB30BE40BF50B661FC3
:10174000771F881F991F1A9469F760957095809587
:1017500090959B01AC01BD01CF010895EE0FFF1FD5
:0C1760000590F491E02D0994F894FFCF5F
:10176C0052656164696E6720696E666F2066726F80
:10177C006D204448542E2E2E00436865636B7375A0
:10178C006D206F6B004448542048756D6964697412
:10179C00793A2000004448542054656D706572619C
:1017AC00747572653A2000436865636B73756D20C0
:1017BC006572726F720054696D65206F7574206567
:1017CC0072726F7200556E6B6E6F776E20657272EF
:1017DC006F720046616E2053746174732E2E2E004E
:1017EC0046616E20706F7765722073746174653A10
:1017FC0020005475726E696E672066616E206F6E84
:10180C0020746F20636F6F6C005475726E696E6715
:10181C002066616E206F666620746F207761726D32
:10182C00005361766564207661726961626C6573E0
:10183C002E2E2E005461726765742074656D706570
:10184C007261747572653A2000496E697469616CD5
:10185C00697A696E67204175746F6D617465642077
:10186C004D6F64756C617220477265656E686F753B
:10187C0073652E2E2E0046696E6973686564204967
:10188C006E697469616C697A6174696F6E0A006E55
:10189C00616E00696E66006F7666002E008813001C
:1018AC0000FFFFFFFF1700000000008F0625072533
:0818BC0006560636067F060001
:00000001FF
