:100000000C9463000C948B000C948B000C948B006C
:100010000C948B000C948B000C948B000C948B0034
:100020000C948B000C948B000C948B000C948B0024
:100030000C948B000C948B000C948B000C948B0014
:100040000C94FB020C948B000C94FC040C944A0559
:100050000C948B000C948B000C948B000C948B00F4
:100060000C948B000C948B000000000024002700EF
:100070002A0000000000250028002B0000000000DE
:1000800023002600290004040404040404040202DA
:100090000202020203030303030301020408102007
:1000A0004080010204081020010204081020000012
:1000B0000007000201000003040600000000000029
:1000C0000000D701B60611241FBECFEFD8E0DEBF77
:1000D000CDBF12E0A0E0B1E0E2E2F7E102C005909E
:1000E0000D92AA30B107D9F712E0AAE0B2E001C040
:1000F0001D92A73DB107E1F710E0C6ECD0E004C0C7
:100100002297FE010E948B0BC23CD107C9F70E94C7
:10011000EC020C948F0B0C9400000895FC0182817A
:100120000895FC01628380810E9454040895FC01BB
:10013000862F6083718361E00E94150408958F9279
:100140009F92AF92BF92CF92DF92EF92FF920F9366
:100150001F93CF93DF935C01D62EE42EFC01108613
:100160001186128613861486862F61E00E9415047C
:100170008D2D60E00E945404FF2400E010E0C801CF
:10018000B7010E9477038D2D61E00E94540488E23C
:1001900090E00E94D0038D2D60E00E941504C0E91C
:1001A000D1E002C0219741F18D2D0E94A804892B36
:1001B000C9F3C0E9D1E002C02197F1F08D2D0E9472
:1001C000A8040197C9F303C0219741F415C040E882
:1001D000C42E882438E2932EC0E9D1E08D2D0E94F0
:1001E000A804892B89F30E9451037B018C01C0E98B
:1001F000D1E005C0219719F42EEF3FEF2CC08D2DD3
:100200000E94A8040197B1F30E9451036E197F095F
:10021000800B910B693271058105910530F0F50174
:10022000E80DF11D80858C2980878C2D90E09595B7
:100230008795C82E882319F4839480E8C82E9A9451
:1002400059F68D2D61E00E9415048D2D61E00E940C
:10025000540420E030E0C901DF91CF911F910F914C
:10026000FF90EF90DF90CF90BF90AF909F908F90D6
:100270000895EF92FF920F931F93CF93DF93EC01BA
:1002800042E10E949F007C01009769F080E090ECC1
:10029000A9E7B4EC88839983AA83BB838C839D836D
:1002A000AE83BF831DC00885602F70E080E090E0C2
:1002B0000E942B0A688379838A839B831A85612F26
:1002C00070E080E090E00E942B0A6C837D838E8337
:1002D0009F83100F8C85811719F0EE24EA94FE2C71
:1002E000C701DF91CF911F910F91FF90EF9008957B
:1002F0000F931F93CF93DF93EC0141E00E949F0087
:100300008C01009769F080E090ECA9E7B4EC888359
:100310009983AA83BB838C839D83AE83BF8341C0B3
:10032000888569850E942209A0E0B0E0BC01CD016A
:100330000E942B0A2DEC3CEC4CEC5DE30E94E10AA0
:10034000688379838A839B838A858F776B850E94F4
:100350002209A0E0B0E0BC01CD010E942B0A2DECE7
:100360003CEC4CEC5DE30E94E10A9B01AC016C8328
:100370007D838E839F838A8587FF07C0DA01C90149
:10038000B0588C839D83AE83BF8389859885890F00
:100390009A85890F9B85890F9C85981711F00FEF1F
:1003A0001FEFC801DF91CF911F910F9108958EE04B
:1003B00092E00E948D0081E192E00E948D0084E134
:1003C00092E00E948D000895EF92FF920F931F9389
:1003D0000E9443037B018C0180910A0290910B02E1
:1003E000A0910C02B0910D02A8019701281B390BB6
:1003F0004A0B5B0B8091F1019091F201A091F30106
:10040000B091F40182179307A407B50708F0A5C0BF
:10041000E0920A02F0920B0200930C0210930D027C
:100420008EE092E00E948E0011E0682F61278EE03E
:1004300092E00E94910081E192E00E948E001827D4
:1004400081E192E0612F0E94910085EB92E060E0F3
:1004500071E00E940F0985EB92E06AE271E00E9470
:100460000F0987E192E069E00E9439012FEF8F3F89
:10047000920709F45CC0009729F08E5F9F4F09F046
:1004800060C05AC085EB92E063E471E00E940F09FE
:1004900085EB92E06FE471E00E942508409117021D
:1004A000509118026091190270911A0285EB92E046
:1004B00022E030E00E940C0960911702709118024E
:1004C0008091190290911A020E94FA097093F80122
:1004D0006093F70185EB92E06EE571E00E940F09F1
:1004E00085EB92E06FE571E00E94250840911B02C8
:1004F00050911C0260911D0270911E0285EB92E0EA
:1005000022E030E00E940C0960911B0270911C02F5
:1005100080911D0290911E020E94FA097093F601CB
:100520006093F50185EB92E06EE571E00EC085EB1E
:1005300092E061E771E009C085EB92E060E871E06C
:1005400004C085EB92E06FE871E00E940F0985EB33
:1005500092E06EE571E00E940F098EE092E00E9449
:100560008E00882329F08EE092E060E00E949100E6
:100570001F910F91FF90EF9008950F931F9305EB3C
:1005800012E0C80140E855E260E070E00E94850595
:10059000C8016DE971E00E940F098EE092E06DE004
:1005A00070E00E94970081E192E06CE070E00E94B0
:1005B000970084E192E06BE070E00E94970087E191
:1005C00092E069E00E947801C8016AEC71E00E9443
:1005D0000F091F910F910895CF93DF930E94DA03C3
:1005E0000E94BD02C7E3D5E00E94E4012097E1F339
:1005F0000E943705F9CF1F920F920FB60F92112468
:100600002F933F938F939F93AF93BF938091280233
:1006100090912902A0912A02B0912B0230912C02D4
:100620000196A11DB11D232F2D5F2D3720F02D57D1
:100630000196A11DB11D20932C0280932802909356
:100640002902A0932A02B0932B0280912402909158
:100650002502A0912602B09127020196A11DB11D8D
:100660008093240290932502A0932602B093270240
:10067000BF91AF919F918F913F912F910F900FBE9E
:100680000F901F9018958FB7F89420912802309101
:10069000290240912A0250912B028FBFB901CA0151
:1006A00008959FB7F894209124023091250240913B
:1006B00026025091270286B5A89B06C08F3F21F0E5
:1006C0002F5F3F4F4F4F5F4F9FBF542F432F322F0E
:1006D0002227280F311D411D511D82E0220F331F9B
:1006E000441F551F8A95D1F7B901CA0108959B018E
:1006F000AC017FB7F8948091240290912502A091DB
:100700002602B091270266B5A89B05C06F3F19F07D
:100710000196A11DB11D7FBFBA2FA92F982F882741
:10072000860F911DA11DB11D62E0880F991FAA1FA0
:10073000BB1F6A95D1F7BC012DC0FFB7F89480911B
:10074000240290912502A0912602B0912702E6B5DD
:10075000A89B05C0EF3F19F00196A11DB11DFFBF79
:10076000BA2FA92F982F88278E0F911DA11DB11D7B
:10077000E2E0880F991FAA1FBB1FEA95D1F7861BDD
:10078000970B885E9340C8F2215030404040504063
:1007900068517C4F211531054105510571F60895C9
:1007A000019739F0880F991F880F991F02970197B9
:1007B000F1F70895789484B5826084BD84B5816032
:1007C00084BD85B5826085BD85B5816085BDEEE659
:1007D000F0E0808181608083E1E8F0E01082808138
:1007E00082608083808181608083E0E8F0E08081A6
:1007F00081608083E1EBF0E0808184608083E0EBC6
:10080000F0E0808181608083EAE7F0E080818460AD
:100810008083808182608083808181608083808109
:10082000806880831092C1000895CF93DF93482F92
:1008300050E0CA0186569F4FFC0134914A575F4FE2
:10084000FA018491882369F190E0880F991FFC01D7
:10085000E859FF4FA591B491FC01EE58FF4FC591A7
:10086000D491662351F42FB7F8948C91932F9095DF
:1008700089238C93888189230BC0623061F42FB760
:10088000F8948C91932F909589238C938881832B56
:1008900088832FBF06C09FB7F8948C91832B8C93CD
:1008A0009FBFDF91CF910895482F50E0CA01825534
:1008B0009F4FFC012491CA0186569F4FFC019491E1
:1008C0004A575F4FFA013491332309F440C0222381
:1008D00051F1233071F0243028F42130A1F022307E
:1008E00011F514C02630B1F02730C1F02430D9F40E
:1008F00004C0809180008F7703C0809180008F7D3D
:100900008093800010C084B58F7702C084B58F7D3E
:1009100084BD09C08091B0008F7703C08091B00082
:100920008F7D8093B000E32FF0E0EE0FFF1FEE58B5
:10093000FF4FA591B4912FB7F894662321F48C91C1
:100940009095892302C08C91892B8C932FBF089599
:10095000682F70E0CB0182559F4FFC012491CB01A1
:1009600086569F4FFC0144916A577F4FFB0194913B
:10097000992319F420E030E03CC0222351F12330C8
:1009800071F0243028F42130A1F0223011F514C088
:100990002630B1F02730C1F02430D9F404C0809162
:1009A00080008F7703C0809180008F7D80938000CE
:1009B00010C084B58F7702C084B58F7D84BD09C017
:1009C0008091B0008F7703C08091B0008F7D8093BD
:1009D000B000892F90E0880F991F84589F4FFC0129
:1009E000A591B4918C9120E030E0842311F021E0B6
:1009F00030E0C901089508951F920F920FB60F922B
:100A000011242F933F934F938F939F93EF93FF93D3
:100A10008091C00082FD1DC04091C60020916D02F2
:100A200030916E022F5F3F4F2F73307080916F02B5
:100A3000909170022817390771F0E0916D02F091E2
:100A40006E02E35DFD4F408330936E0220936D0292
:100A500002C08091C600FF91EF919F918F914F91BD
:100A60003F912F910F900FBE0F901F901895E0911E
:100A7000C102F091C202E05CFF4F8191919120810F
:100A80003181821B930B8F739070892B11F00E9420
:100A9000FB0408951F920F920FB60F9211242F930B
:100AA0003F938F939F93EF93FF932091B1023091E7
:100AB000B2028091B3029091B4022817390731F441
:100AC0008091C1008F7D8093C10014C0E091B3027A
:100AD000F091B402EF58FD4F20818091B3029091C4
:100AE000B40201968F7390709093B4028093B30216
:100AF0002093C600FF91EF919F918F913F912F918D
:100B00000F900FBE0F901F901895AF92BF92DF927B
:100B1000EF92FF920F931F93CF93DF93EC017A0133
:100B20008B01DD24403081EE580780E0680780E0CB
:100B3000780711F0DD24D39491E0A92EB12CEC8933
:100B4000FD89DD2069F0C50108A002C0880F991F4A
:100B50000A94E2F7808360E079E08DE390E005C0DD
:100B6000108260E874E88EE190E0A80197010E948D
:100B7000670B21503040404050405695479537957F
:100B8000279580E12030380720F0DD2011F0DD24AA
:100B9000D6CFE889F9893083EA89FB89208319A2B5
:100BA000EE89FF89408121E030E0C9010C8C02C050
:100BB000880F991F0A94E2F7482B4083EE89FF893A
:100BC0004081C9010D8C02C0880F991F0A94E2F779
:100BD000482B4083EE89FF894081C9010E8C02C0F9
:100BE000880F991F0A94E2F7482B4083EE89FF890A
:100BF00080810F8C02C0220F331F0A94E2F72095E8
:100C000028232083DF91CF911F910F91FF90EF90C8
:100C1000DF90BF90AF900895DC011C96ED91FC91A0
:100C20001D97E05CFF4F2191319180819181281BBC
:100C3000390B2F733070C9010895DC011C96ED91BA
:100C4000FC911D97E05CFF4F20813181E054F04022
:100C5000DF01AE5BBF4F8D919C911197281739072B
:100C600019F42FEF3FEF07C08D919C91E80FF91F0A
:100C70008081282F30E0C9010895DC011C96ED9198
:100C8000FC911D97E05CFF4F20813181E054F040E2
:100C9000DF01AE5BBF4F8D919C91119728173907EB
:100CA00019F42FEF3FEF10C08D919C911197E80F31
:100CB000F91F20818D919C91119701968F739070EF
:100CC00011969C938E9330E0C9010895DC019196B2
:100CD0008C919197882339F05496ED91FC9155971A
:100CE000808186FFF9CF91961C920895CF93DF9370
:100CF000EC01EE85FF85E05CFF4F20813181E054FF
:100D0000F0402F5F3F4F2F733070DF01AE5BBF4F5E
:100D10008D919C91119728173907D1F3E05CFF4F13
:100D200080819181E054F040E80FF91F6083EE85E7
:100D3000FF85E05CFF4F31832083EE89FF892081AE
:100D400081E090E00F8C02C0880F991F0A94E2F7AF
:100D5000282B208381E089A3EC89FD898081806430
:100D6000808381E090E0DF91CF9108951092B802E6
:100D70001092B70288EE93E0A0E0B0E08093B90251
:100D80009093BA02A093BB02B093BC028DEF91E0A6
:100D90009093B6028093B5028DE292E09093C202E6
:100DA0008093C10281E792E09093C4028093C302D2
:100DB00085EC90E09093C6028093C50284EC90E0AD
:100DC0009093C8028093C70280EC90E09093CA028F
:100DD0008093C90281EC90E09093CC028093CB0287
:100DE00082EC90E09093CE028093CD0286EC90E06E
:100DF0009093D0028093CF0284E08093D10283E06D
:100E00008093D20287E08093D30285E08093D4025E
:100E100081E08093D5020895CF92DF92EF92FF9206
:100E20000F931F93CF93DF937C016B018A01C0E086
:100E3000D0E00FC0D6016D916D01D701ED91FC910D
:100E40000190F081E02DC7010995C80FD91F01500D
:100E500010400115110571F7CE01DF91CF911F915F
:100E60000F91FF90EF90DF90CF900895EF92FF9257
:100E70000F931F938C01DC01ED91FC910190F081A7
:100E8000E02D6DE009957C01D801ED91FC91019078
:100E9000F081E02DC8016AE009959C012E0D3F1DEF
:100EA000C9011F910F91FF90EF900895CF93DF93A9
:100EB000EC016115710519F420E030E00FC0DB0191
:100EC0000D900020E9F71197A61BB70BE881F98177
:100ED0000280F381E02DAD0109959C01C901DF91EC
:100EE000CF9108954F925F927F928F929F92AF928F
:100EF000BF92CF92DF92EF92FF920F931F93DF93F7
:100F0000CF93CDB7DEB7A1970FB6F894DEBF0FBE73
:100F1000CDBF2C01742ECB01223008F42AE019A297
:100F200031E2C32ED12CCC0EDD1E822E9924AA24B0
:100F3000BB24672D752FA50194010E94670B7901D1
:100F40008A01C801B701A50194010E94480B472DF1
:100F5000461B0894C108D1084A3014F4405D01C012
:100F6000495CF6014083E114F1040105110521F00B
:100F70007E2C5F2DC801DDCFC201B6010E9456074D
:100F8000A1960FB6F894DEBF0FBECDBFCF91DF9113
:100F90001F910F91FF90EF90DF90CF90BF90AF9097
:100FA0009F908F907F905F904F900895DC01211566
:100FB000310541F4ED91FC910190F081E02D642F19
:100FC000099508950E9472070895CF92DF92EF92DB
:100FD000FF920F931F93CF93DF93EC016A017B0184
:100FE0002115310541F4E881F9810190F081E02D6E
:100FF000642F09951FC02A303105D1F477FF17C03F
:10100000E881F9810190F081E02D6DE209958C0174
:1010100044275527BA014C195D096E097F09CE0195
:101020002AE00E9472079801280F391F04C02AE0A5
:101030000E9472079C01C901DF91CF911F910F910E
:10104000FF90EF90DF90CF9008950E94560708958B
:101050007F928F929F92AF92BF92CF92DF92EF9248
:10106000FF920F931F93CF93DF934C017A018B0173
:10107000722ECB01BA01A80197010E94440B88236C
:1010800021F0C40163EE71E021C0C0E0D0E057015F
:101090006801E894D7F8C601B5012FEF3FEF4FE79D
:1010A0005FE70E94440B882351F4C601B5012FEF7E
:1010B0003FEF4FE75FE70E948E09181614F0C1E07A
:1010C000D0E0219739F0C40167EE71E00E94560725
:1010D000EC0193C0C801B7012FEF3FEF4FE75FE48A
:1010E0000E94DD0A181654F0C801B7012FEF3FEF38
:1010F0004FE75FEC0E948E09882324F4C4016BEE55
:1011000071E0E4CFC801B70120E030E040E050E0FA
:101110000E948E0987FD03C0C0E0D0E00EC0D4015C
:10112000ED91FC910190F081E02DC4016DE20995F3
:10113000EC0117FB109517F9109520E030E040E026
:101140005FE3DD240BC0CA01B90120E030E040E2DA
:1011500051E40E9492099B01AC01D394D71498F3F7
:10116000C801B7010E942A095B016C010E94FF09B6
:101170007B018C01C401B801A7012AE030E00E9484
:10118000D607C80FD91F772039F0C4016FEE71E080
:101190000E945607C80FD91FC801B7010E942B0A29
:1011A0009B01AC01C601B5010E94290924C020E0C1
:1011B00030E040E251E40E94E10A7B018C010E9490
:1011C000FA095B016C01CC24B7FCC094DC2CC4018F
:1011D000B601A5012AE030E00E94E507C80FD91F3B
:1011E000C601B5010E942D0A9B01AC01C801B701DF
:1011F0000E9429097A947720D1F6CE01DF91CF9110
:101200001F910F91FF90EF90DF90CF90BF90AF9024
:101210009F908F907F9008950E9428080895EF92E4
:10122000FF920F931F937C010E9456078C01C70108
:101230000E943607080F191FC8011F910F91FF90D8
:10124000EF90089570E0382F20E0622B732BCB01D4
:1012500008955058BB27AA270ED075C166D130F02B
:101260006BD120F031F49F3F11F41EF45BC10EF4FA
:10127000E095E7FB51C1E92F77D180F3BA176207F8
:1012800073078407950718F071F49EF58FC10EF46B
:10129000E0950B2EBA2FA02D0B01B90190010C0186
:1012A000CA01A0011124FF27591B99F0593F50F49E
:1012B000503E68F11A16F040A22F232F342F4427F6
:1012C000585FF3CF469537952795A795F0405395EE
:1012D000C9F77EF41F16BA0B620B730B840BBAF0BE
:1012E0009150A1F0FF0FBB1F661F771F881FC2F729
:1012F0000EC0BA0F621F731F841F48F4879577953D
:101300006795B795F7959E3F08F0B3CF9395880FF3
:1013100008F09927EE0F979587950895D9D008F48E
:1013200081E008950CD00FC107D140F0FED030F01D
:1013300021F45F3F19F0F0C0511139C1F3C014D14D
:1013400098F39923C9F35523B1F3951B550BBB278C
:10135000AA2762177307840738F09F5F5F4F220F39
:10136000331F441FAA1FA9F333D00E2E3AF0E0E832
:1013700030D091505040E695001CCAF729D0FE2F7E
:1013800027D0660F771F881FBB1F26173707480710
:10139000AB07B0E809F0BB0B802DBF01FF279358C6
:1013A0005F4F2AF09E3F510568F0B6C000C15F3F15
:1013B000ECF3983EDCF3869577956795B795F795AE
:1013C0009F5FC9F7880F911D9695879597F90895A6
:1013D000E1E0660F771F881FBB1F62177307840742
:1013E000BA0720F0621B730B840BBA0BEE1F88F751
:1013F000E095089504D06894B111D9C00895BCD087
:1014000088F09F5790F0B92F9927B751A0F0D1F0ED
:10141000660F771F881F991F1AF0BA95C9F712C077
:10142000B13081F0C3D0B1E00895C0C0672F782FEC
:101430008827B85F39F0B93FCCF3869577956795E3
:10144000B395D9F73EF490958095709561957F4F4F
:101450008F4F9F4F0895E89409C097FB3EF49095F5
:101460008095709561957F4F8F4F9F4F9923A9F07D
:10147000F92F96E9BB279395F6958795779567950C
:10148000B795F111F8CFFAF4BB0F11F460FF1BC050
:101490006F5F7F4F8F4F9F4F16C0882311F096E9E3
:1014A00011C0772321F09EE8872F762F05C0662391
:1014B00071F096E8862F70E060E02AF09A95660F4A
:1014C000771F881FDAF7880F9695879597F9089503
:1014D000990F0008550FAA0BE0E8FEEF1616170645
:1014E000E807F907C0F012161306E407F50798F0AD
:1014F000621B730B840B950B39F40A2661F0232BC6
:10150000242B252B21F408950A2609F4A140A69541
:101510008FEF811D811D089597F99F6780E870E026
:1015200060E008959FEF80EC089500240A94161659
:10153000170618060906089500240A9412161306C1
:10154000140605060895092E0394000C11F488234F
:1015500052F0BB0F40F4BF2B11F460FF04C06F5F6B
:101560007F4F8F4F9F4F089557FD9058440F551F41
:1015700059F05F3F71F04795880F97FB991F61F015
:101580009F3F79F087950895121613061406551F8C
:10159000F2CF4695F1DF08C0161617061806991FF8
:1015A000F1CF86957105610508940895E894BB27ED
:1015B00066277727CB0197F908958ADF08F48FEF24
:1015C00008950BD0C0CFB1DF28F0B6DF18F0952317
:1015D00009F0A2CFA7CF1124EACFC6DFA0F3959FD1
:1015E000D1F3950F50E0551F629FF001729FBB270A
:1015F000F00DB11D639FAA27F00DB11DAA1F649FB6
:101600006627B00DA11D661F829F2227B00DA11D68
:10161000621F739FB00DA11D621F839FA00D611DEE
:10162000221F749F3327A00D611D231F849F600D0F
:10163000211D822F762F6A2F11249F5750408AF048
:10164000E1F088234AF0EE0FFF1FBB1F661F771FD4
:10165000881F91505040A9F79E3F510570F05CCF14
:10166000A6CF5F3FECF3983EDCF3869577956795C0
:10167000B795F795E7959F5FC1F7FE2B880F911DF2
:101680009695879597F9089523DF880B990B089510
:10169000629FD001739FF001829FE00DF11D649F56
:1016A000E00DF11D929FF00D839FF00D749FF00DE2
:1016B000659FF00D9927729FB00DE11DF91F639F83
:1016C000B00DE11DF91FBD01CF0111240895A1E264
:1016D0001A2EAA1BBB1BFD010DC0AA1FBB1FEE1FAC
:1016E000FF1FA217B307E407F50720F0A21BB30BF7
:1016F000E40BF50B661F771F881F991F1A9469F773
:1017000060957095809590959B01AC01BD01CF01CE
:101710000895EE0FFF1F0590F491E02D0994F894C1
:02172000FFCFF9
:1017220052656164696E6720696E666F2066726FCA
:101732006D20536F696C2048756D696469747920F6
:1017420053656E736F722E2E2E0052656164696E40
:101752006720696E666F2066726F6D204448542E52
:101762002E2E00436865636B73756D206F6B0044AA
:1017720048542048756D69646974793A20000044C0
:1017820048542054656D70657261747572653A20B3
:1017920000436865636B73756D206572726F7200CA
:1017A20054696D65206F7574206572726F72005591
:1017B2006E6B6E6F776E206572726F7200496E6922
:1017C2007469616C697A696E67204175746F6D61C5
:1017D200746564204D6F64756C6172204772656533
:1017E2006E686F7573652E2E2E0046696E6973687A
:1017F200656420496E697469616C697A6174696FA4
:101802006E0A006E616E00696E66006F7666002E6B
:101812000088130000FFFFFFFF0000000076060CA7
:0A182200070C063D061D06660600D1
:00000001FF
